{
  "contractName": "Investments",
  "abi": [
    {
      "constant": true,
      "inputs": [],
      "name": "minSumRef",
      "outputs": [
        {
          "name": "",
          "type": "uint256"
        }
      ],
      "payable": false,
      "stateMutability": "view",
      "type": "function"
    },
    {
      "constant": true,
      "inputs": [
        {
          "name": "",
          "type": "uint256"
        }
      ],
      "name": "refGroups",
      "outputs": [
        {
          "name": "minSum",
          "type": "uint256"
        },
        {
          "name": "maxSum",
          "type": "uint256"
        }
      ],
      "payable": false,
      "stateMutability": "view",
      "type": "function"
    },
    {
      "constant": true,
      "inputs": [],
      "name": "refLevelsTables",
      "outputs": [
        {
          "name": "",
          "type": "uint256"
        }
      ],
      "payable": false,
      "stateMutability": "view",
      "type": "function"
    },
    {
      "constant": true,
      "inputs": [
        {
          "name": "",
          "type": "uint256"
        }
      ],
      "name": "programs",
      "outputs": [
        {
          "name": "minSum",
          "type": "uint256"
        },
        {
          "name": "income",
          "type": "uint256"
        }
      ],
      "payable": false,
      "stateMutability": "view",
      "type": "function"
    },
    {
      "constant": true,
      "inputs": [],
      "name": "programsCount",
      "outputs": [
        {
          "name": "",
          "type": "uint256"
        }
      ],
      "payable": false,
      "stateMutability": "view",
      "type": "function"
    },
    {
      "constant": true,
      "inputs": [],
      "name": "refLevelsCount",
      "outputs": [
        {
          "name": "",
          "type": "uint256"
        }
      ],
      "payable": false,
      "stateMutability": "view",
      "type": "function"
    },
    {
      "inputs": [],
      "payable": false,
      "stateMutability": "nonpayable",
      "type": "constructor"
    },
    {
      "constant": true,
      "inputs": [
        {
          "name": "_sum",
          "type": "uint256"
        }
      ],
      "name": "getRefPercents",
      "outputs": [
        {
          "name": "",
          "type": "uint16[]"
        }
      ],
      "payable": false,
      "stateMutability": "view",
      "type": "function"
    },
    {
      "constant": true,
      "inputs": [
        {
          "name": "_index",
          "type": "uint256"
        }
      ],
      "name": "getRefPercentsByIndex",
      "outputs": [
        {
          "name": "",
          "type": "uint16[]"
        }
      ],
      "payable": false,
      "stateMutability": "view",
      "type": "function"
    },
    {
      "constant": true,
      "inputs": [
        {
          "name": "_index",
          "type": "uint256"
        }
      ],
      "name": "getProgramInfo",
      "outputs": [
        {
          "name": "",
          "type": "uint256"
        },
        {
          "name": "",
          "type": "uint256"
        }
      ],
      "payable": false,
      "stateMutability": "view",
      "type": "function"
    },
    {
      "constant": true,
      "inputs": [
        {
          "name": "_totalSum",
          "type": "uint256"
        }
      ],
      "name": "getProgramPercent",
      "outputs": [
        {
          "name": "",
          "type": "uint256"
        }
      ],
      "payable": false,
      "stateMutability": "view",
      "type": "function"
    }
  ],
  "bytecode": "0x60806040523480156200001157600080fd5b506200001c62000d73565b6200002662000d73565b6200003062000d73565b606060405190810160405280662386f26fc100008152602001678ac7230489e7ffff81526020016005604051908082528060200260200182016040528015620000885781602001602082028038833980820191505090505b50815250925061012c83604001516000815181101515620000a557fe5b9060200190602002019061ffff16908161ffff1681525050604b83604001516001815181101515620000d357fe5b9060200190602002019061ffff16908161ffff1681525050603c836040015160028151811015156200010157fe5b9060200190602002019061ffff16908161ffff16815250506028836040015160038151811015156200012f57fe5b9060200190602002019061ffff16908161ffff16815250506019836040015160048151811015156200015d57fe5b9060200190602002019061ffff16908161ffff16815250506000839080600181540180825580915050906001820390600052602060002090600302016000909192909190915060008201518160000155602082015181600101556040820151816002019080519060200190620001d592919062000d95565b50505050606060405190810160405280678ac7230489e80000815260200168056bc75e2d630fffff81526020016005604051908082528060200260200182016040528015620002335781602001602082028038833980820191505090505b5081525091506101f4826040015160008151811015156200025057fe5b9060200190602002019061ffff16908161ffff168152505060c8826040015160018151811015156200027e57fe5b9060200190602002019061ffff16908161ffff1681525050609682604001516002815181101515620002ac57fe5b9060200190602002019061ffff16908161ffff1681525050606482604001516003815181101515620002da57fe5b9060200190602002019061ffff16908161ffff16815250506032826040015160048151811015156200030857fe5b9060200190602002019061ffff16908161ffff168152505060008290806001815401808255809150509060018203906000526020600020906003020160009091929091909150600082015181600001556020820151816001015560408201518160020190805190602001906200038092919062000d95565b5050505060606040519081016040528068056bc75e2d6310000081526020017fffffffffffffffffffffffffffffffffffffffffffffffffffffffffffffffff81526020016005604051908082528060200260200182016040528015620003f65781602001602082028038833980820191505090505b5081525090506102bc816040015160008151811015156200041357fe5b9060200190602002019061ffff16908161ffff168152505061012c816040015160018151811015156200044257fe5b9060200190602002019061ffff16908161ffff168152505060fa816040015160028151811015156200047057fe5b9060200190602002019061ffff16908161ffff16815250506096816040015160038151811015156200049e57fe5b9060200190602002019061ffff16908161ffff1681525050606481604001516004815181101515620004cc57fe5b9060200190602002019061ffff16908161ffff168152505060008190806001815401808255809150509060018203906000526020600020906003020160009091929091909150600082015181600001556020820151816001015560408201518160020190805190602001906200054492919062000d95565b5050505060016040805190810160405280662386f26fc10000815260200160b48152509080600181540180825580915050906001820390600052602060002090600202016000909192909190915060008201518160000155602082015181600101555050506001604080519081016040528067039bb49f599a0000815260200160c081525090806001815401808255809150509060018203906000526020600020906002020160009091929091909150600082015181600001556020820151816001015550505060016040805190810160405280670a8c0ff92d4c0000815260200160cc815250908060018154018082558091505090600182039060005260206000209060020201600090919290919091506000820151816000015560208201518160010155505050600160408051908101604052806714f498ffead70000815260200160d8815250908060018154018082558091505090600182039060005260206000209060020201600090919290919091506000820151816000015560208201518160010155505050600160408051908101604052806722d54fb3923b0000815260200160e481525090806001815401808255809150509060018203906000526020600020906002020160009091929091909150600082015181600001556020820151816001015550505060016040805190810160405280673e96bd1ae1030000815260200160f08152509080600181540180825580915050906001820390600052602060002090600202016000909192909190915060008201518160000155602082015181600101555050506001604080519081016040528067614885dc037d0000815260200160fc81525090806001815401808255809150509060018203906000526020600020906002020160009091929091909150600082015181600001556020820151816001015550505060016040805190810160405280678aeaa9f6f9a9000081526020016101088152509080600181540180825580915050906001820390600052602060002090600202016000909192909190915060008201518160000155602082015181600101555050506001604080519081016040528067c26d84c59739000081526020016101148152509080600181540180825580915050906001820390600052602060002090600202016000909192909190915060008201518160000155602082015181600101555050506001604080519081016040528067f9f05f9434c9000081526020016101208152509080600181540180825580915050906001820390600052602060002090600202016000909192909190915060008201518160000155602082015181600101555050506001604080519081016040528068013f53f11679bd0000815260200161012c81525090806001815401808255809150509060018203906000526020600020906002020160009091929091909150600082015181600001556020820151816001015550505060016040805190810160405280680184b78298beb100008152602001610138815250908060018154018082558091505090600182039060005260206000209060020201600090919290919091506000820151816000015560208201518160010155505050600160408051908101604052806801d7fbcaceab09000081526020016101448152509080600181540180825580915050906001820390600052602060002090600202016000909192909190915060008201518160000155602082015181600101555050506001604080519081016040528068023920c9b83ec500008152602001610150815250908060018154018082558091505090600182039060005260206000209060020201600090919290919091506000820151816000015560208201518160010155505050600160408051908101604052806802b5e3af16b1880000815260200161015c81525090806001815401808255809150509060018203906000526020600020906002020160009091929091909150600082015181600001556020820151816001015550505060016040805190810160405280680340aad21b3b700000815260200161016881525090806001815401808255809150509060018203906000526020600020906002020160009091929091909150600082015181600001556020820151816001015550505060016040805190810160405280680410d586a20a4c000081526020016101748152509080600181540180825580915050906001820390600052602060002090600202016000909192909190915060008201518160000155602082015181600101555050506001604080519081016040528068052663ccab1e1c000081526020016101808152509080600181540180825580915050906001820390600052602060002090600202016000909192909190915060008201518160000155602082015181600101555050506001604080519081016040528068068155a43676e00000815260200161018c81525090806001815401808255809150509060018203906000526020600020906002020160009091929091909150600082015181600001556020820151816001015550505060016040805190810160405280680821ab0d4414980000815260200161019881525090806001815401808255809150509060018203906000526020600020906002020160009091929091909150600082015181600001556020820151816001015550505060016040805190810160405280680ad78ebc5ac620000081526020016101a481525090806001815401808255809150509060018203906000526020600020906002020160009091929091909150600082015181600001556020820151816001015550505050505062000e7a565b6060604051908101604052806000815260200160008152602001606081525090565b82805482825590600052602060002090600f0160109004810192821562000e335791602002820160005b8382111562000e0157835183826101000a81548161ffff021916908361ffff160217905550926020019260020160208160010104928301926001030262000dbf565b801562000e315782816101000a81549061ffff021916905560020160208160010104928301926001030262000e01565b505b50905062000e42919062000e46565b5090565b62000e7791905b8082111562000e7357600081816101000a81549061ffff02191690555060010162000e4d565b5090565b90565b6106db8062000e8a6000396000f3006080604052600436106100a4576000357c0100000000000000000000000000000000000000000000000000000000900463ffffffff168063169b15dd146100a95780631726d2c5146100d45780634b5a726d146101565780635e047d581461019e57806382f470aa146101e657806392db28161461021157806396a2ddfa14610259578063a1b7783514610284578063b32142a014610306578063b547e84414610347575b600080fd5b3480156100b557600080fd5b506100be610372565b6040518082815260200191505060405180910390f35b3480156100e057600080fd5b506100ff6004803603810190808035906020019092919050505061037d565b6040518080602001828103825283818151815260200191508051906020019060200280838360005b83811015610142578082015181840152602081019050610127565b505050509050019250505060405180910390f35b34801561016257600080fd5b5061018160048036038101908080359060200190929190505050610494565b604051808381526020018281526020019250505060405180910390f35b3480156101aa57600080fd5b506101c9600480360381019080803590602001909291905050506104e2565b604051808381526020018281526020019250505060405180910390f35b3480156101f257600080fd5b506101fb610515565b6040518082815260200191505060405180910390f35b34801561021d57600080fd5b5061023c6004803603810190808035906020019092919050505061051a565b604051808381526020018281526020019250505060405180910390f35b34801561026557600080fd5b5061026e61054d565b6040518082815260200191505060405180910390f35b34801561029057600080fd5b506102af60048036038101908080359060200190929190505050610552565b6040518080602001828103825283818151815260200191508051906020019060200280838360005b838110156102f25780820151818401526020810190506102d7565b505050509050019250505060405180910390f35b34801561031257600080fd5b50610331600480360381019080803590602001909291905050506105f2565b6040518082815260200191505060405180910390f35b34801561035357600080fd5b5061035c610688565b6040518082815260200191505060405180910390f35b662386f26fc1000081565b6060600061038961068d565b600091505b600382101561048c576000828154811015156103a657fe5b90600052602060002090600302016060604051908101604052908160008201548152602001600182015481526020016002820180548060200260200160405190810160405280929190818152602001828054801561044b57602002820191906000526020600020906000905b82829054906101000a900461ffff1661ffff16815260200190600201906020826001010492830192600103820291508084116104125790505b50505050508152505090508060000151841015801561046e575080602001518411155b1561047f578060400151925061048d565b818060010192505061038e565b5b5050919050565b6000806001838154811015156104a657fe5b9060005260206000209060020201600001546001848154811015156104c757fe5b90600052602060002090600202016001015491509150915091565b6000818154811015156104f157fe5b90600052602060002090600302016000915090508060000154908060010154905082565b600381565b60018181548110151561052957fe5b90600052602060002090600202016000915090508060000154908060010154905082565b601581565b606060008281548110151561056357fe5b90600052602060002090600302016002018054806020026020016040519081016040528092919081815260200182805480156105e657602002820191906000526020600020906000905b82829054906101000a900461ffff1661ffff16815260200190600201906020826001010492830192600103820291508084116105ad5790505b50505050509050919050565b6000806000809150600090505b601581101561064c5760018181548110151561061757fe5b9060005260206000209060020201600001548410151561063a576001915061063f565b61064c565b80806001019150506105ff565b811561067c57600180820381548110151561066357fe5b9060005260206000209060020201600101549250610681565b600092505b5050919050565b600581565b60606040519081016040528060008152602001600081526020016060815250905600a165627a7a72305820e5d3d00896e225c083e3bf7d0cca67c37875b1407067e3544637e45d498415790029",
  "source": "pragma solidity ^0.4.24;\n\n/*\n\n  /$$$$$$                                      /$$           /$$$$$$                                           /$$                                         /$$\n /$$__  $$                                    | $$          |_  $$_/                                          | $$                                        | $$\n| $$  \\__/ /$$$$$$/$$$$   /$$$$$$   /$$$$$$  /$$$$$$          | $$   /$$$$$$$  /$$    /$$ /$$$$$$   /$$$$$$$ /$$$$$$   /$$$$$$/$$$$   /$$$$$$  /$$$$$$$  /$$$$$$   /$$$$$$$\n|  $$$$$$ | $$_  $$_  $$ |____  $$ /$$__  $$|_  $$_/          | $$  | $$__  $$|  $$  /$$//$$__  $$ /$$_____/|_  $$_/  | $$_  $$_  $$ /$$__  $$| $$__  $$|_  $$_/  /$$_____/\n \\____  $$| $$ \\ $$ \\ $$  /$$$$$$$| $$  \\__/  | $$            | $$  | $$  \\ $$ \\  $$/$$/| $$$$$$$$|  $$$$$$   | $$    | $$ \\ $$ \\ $$| $$$$$$$$| $$  \\ $$  | $$   |  $$$$$$\n /$$  \\ $$| $$ | $$ | $$ /$$__  $$| $$        | $$ /$$        | $$  | $$  | $$  \\  $$$/ | $$_____/ \\____  $$  | $$ /$$| $$ | $$ | $$| $$_____/| $$  | $$  | $$ /$$\\____  $$\n|  $$$$$$/| $$ | $$ | $$|  $$$$$$$| $$        |  $$$$/       /$$$$$$| $$  | $$   \\  $/  |  $$$$$$$ /$$$$$$$/  |  $$$$/| $$ | $$ | $$|  $$$$$$$| $$  | $$  |  $$$$//$$$$$$$/\n \\______/ |__/ |__/ |__/ \\_______/|__/         \\___/        |______/|__/  |__/    \\_/    \\_______/|_______/    \\___/  |__/ |__/ |__/ \\_______/|__/  |__/   \\___/ |_______/\n\n*/\n\nimport \"./Ownable.sol\";\n\ncontract Investments {\n\n    struct InvestProgram {\n        uint256 minSum;     // min sum for program\n        uint256 income;     // income for one year\n    }\n\n    struct ReferralGroup {\n        uint256 minSum;\n        uint256 maxSum;\n        uint16[] percents;\n    }\n\n    uint256 public constant minSumRef = 0.01 ether;\n    uint256 public constant refLevelsTables = 3;\n    uint256 public constant refLevelsCount = 5;\n    ReferralGroup[] public refGroups;\n    uint256 public constant programsCount = 21;\n    InvestProgram[] public programs;\n\n    constructor() public {\n        ReferralGroup memory refGroupFirsty = ReferralGroup(minSumRef, 10 ether - 1 wei, new uint16[](refLevelsCount));\n        refGroupFirsty.percents[0] = 300;   // 3%\n        refGroupFirsty.percents[1] = 75;    // 0.75%\n        refGroupFirsty.percents[2] = 60;    // 0.6%\n        refGroupFirsty.percents[3] = 40;    // 0.4%\n        refGroupFirsty.percents[4] = 25;    // 0.25%\n        refGroups.push(refGroupFirsty);\n\n        ReferralGroup memory refGroupLoyalty = ReferralGroup(10 ether, 100 ether - 1 wei, new uint16[](refLevelsCount));\n        refGroupLoyalty.percents[0] = 500;  // 5%\n        refGroupLoyalty.percents[1] = 200;  // 2%\n        refGroupLoyalty.percents[2] = 150;  // 1.5%\n        refGroupLoyalty.percents[3] = 100;  // 1%\n        refGroupLoyalty.percents[4] = 50;   // 0.5%\n        refGroups.push(refGroupLoyalty);\n\n        ReferralGroup memory refGroupUltraPremium = ReferralGroup(100 ether, 2**256 - 1, new uint16[](refLevelsCount));\n        refGroupUltraPremium.percents[0] = 700; // 7%\n        refGroupUltraPremium.percents[1] = 300; // 3%\n        refGroupUltraPremium.percents[2] = 250; // 2.5%\n        refGroupUltraPremium.percents[3] = 150; // 1.5%\n        refGroupUltraPremium.percents[4] = 100; // 1%\n        refGroups.push(refGroupUltraPremium);\n\n        programs.push(InvestProgram(0.01    ether, 180));   // 180%\n        programs.push(InvestProgram(0.26    ether, 192));   // 192%\n        programs.push(InvestProgram(0.76    ether, 204));   // 204%\n        programs.push(InvestProgram(1.51    ether, 216));   // 216%\n        programs.push(InvestProgram(2.51    ether, 228));   // 228%\n        programs.push(InvestProgram(4.51    ether, 240));   // 240%\n        programs.push(InvestProgram(7.01    ether, 252));   // 252%\n        programs.push(InvestProgram(10.01   ether, 264));   // 264%\n        programs.push(InvestProgram(14.01   ether, 276));   // 276%\n        programs.push(InvestProgram(18.01   ether, 288));   // 288%\n        programs.push(InvestProgram(23.01   ether, 300));   // 300%\n        programs.push(InvestProgram(28.01   ether, 312));   // 312%\n        programs.push(InvestProgram(34.01   ether, 324));   // 324%\n        programs.push(InvestProgram(41.01   ether, 336));   // 336%\n        programs.push(InvestProgram(50      ether, 348));   // 348%\n        programs.push(InvestProgram(60      ether, 360));   // 360%\n        programs.push(InvestProgram(75      ether, 372));   // 372%\n        programs.push(InvestProgram(95      ether, 384));   // 384%\n        programs.push(InvestProgram(120     ether, 396));   // 396%\n        programs.push(InvestProgram(150     ether, 408));   // 408%\n        programs.push(InvestProgram(200     ether, 420));   // 420%\n    }\n\n    function getRefPercents(uint256 _sum) public view returns(uint16[] memory) {\n        for (uint i = 0; i < refLevelsTables; i++) {\n            ReferralGroup memory group = refGroups[i];\n            if (_sum >= group.minSum && _sum <= group.maxSum) return group.percents;\n        }\n    }\n\n    function getRefPercentsByIndex(uint256 _index) public view returns(uint16[] memory) {\n        return refGroups[_index].percents;\n    }\n\n    function getProgramInfo(uint256 _index) public view returns(uint256, uint256) {\n        return (programs[_index].minSum, programs[_index].income);\n    }\n\n    function getProgramPercent(uint256 _totalSum) public view returns(uint256) {\n        bool exist = false;\n        uint256 i = 0;\n        for (; i < programsCount; i++) {\n            if (_totalSum >= programs[i].minSum) exist = true;\n            else break;\n        }\n\n        if (exist) return programs[i - 1].income;\n\n        return 0;\n    }\n\n}\n\ncontract SmartInvestments is Ownable, Investments {\n    event InvestorRegister(address _addr, uint256 _id);\n    event ReferralRegister(address _addr, address _refferal);\n    event Deposit(address _addr, uint256 _value);\n    event ReferrerDistribute(uint256 _referrerId, uint256 _sum);\n    event Withdraw(address _addr, uint256 _sum);\n\n    struct Investor {\n        // public\n        uint256 lastWithdraw;\n        uint256 totalSum;                               // total deposits sum\n        uint256 totalWithdraw;\n        uint256 totalReferralIncome;\n        uint256[] referrersByLevel;                     // referrers ids\n        mapping (uint8 => uint256[]) referralsByLevel;  // all referrals ids\n\n        // private\n        uint256 witharawBuffer;\n    }\n\n    uint256 public globalDeposit;\n    uint256 public globalWithdraw;\n\n    Investor[] public investors;\n    mapping (address => uint256) addressToInvestorId;\n    mapping (uint256 => address) investorIdToAddress;\n\n    modifier onlyForExisting() {\n        require(addressToInvestorId[msg.sender] != 0);\n        _;\n    }\n\n    constructor() public payable {\n        globalDeposit = 0;\n        globalWithdraw = 0;\n        investors.push(Investor(0, 0, 0, 0, new uint256[](refLevelsCount), 0));\n    }\n\n    function() external payable {\n        if (msg.value > 0) {\n            deposit(0);\n        } else {\n            withdraw();\n        }\n    }\n\n    function getInvestorInfo(uint256 _id) public view returns(uint256, uint256, uint256, uint256, uint256[] memory, uint256[] memory) {\n        Investor memory investor = investors[_id];\n        return (investor.lastWithdraw, investor.totalSum, investor.totalWithdraw, investor.totalReferralIncome, investor.referrersByLevel, investors[_id].referralsByLevel[uint8(0)]);\n    }\n\n    function getInvestorId(address _address) public view returns(uint256) {\n        return addressToInvestorId[_address];\n    }\n\n    function getInvestorAddress(uint256 _id) public view returns(address) {\n        return investorIdToAddress[_id];\n    }\n\n    function investorsCount() public view returns(uint256) {\n        return investors.length;\n    }\n\n    /// @notice update referrersByLevel and referralsByLevel of new investor\n    /// @param _newInvestorId the ID of the new investor\n    /// @param _refId the ID of the investor who gets the affiliate fee\n    function _updateReferrals(uint256 _newInvestorId, uint256 _refId) private {\n        if (_newInvestorId == _refId) return;\n        investors[_newInvestorId].referrersByLevel[0] = _refId;\n\n        for (uint i = 1; i < refLevelsCount; i++) {\n            uint256 refId = investors[_refId].referrersByLevel[i - 1];\n            investors[_newInvestorId].referrersByLevel[i] = refId;\n            investors[refId].referralsByLevel[uint8(i)].push(_newInvestorId);\n        }\n\n        investors[_refId].referralsByLevel[0].push(_newInvestorId);\n        emit ReferralRegister(investorIdToAddress[_newInvestorId], investorIdToAddress[_refId]);\n    }\n\n    /// @notice distribute value of tx to referrers of investor\n    /// @param _investor the investor object who gets the affiliate fee\n    /// @param _sum value of ethereum for distribute to referrers of investor\n    function _distributeReferrers(Investor memory _investor, uint256 _sum) private {\n        uint256[] memory referrers = _investor.referrersByLevel;\n\n        for (uint i = 0; i < refLevelsCount; i++)  {\n            uint256 referrerId = referrers[i];\n\n            if (referrers[i] == 0) break;\n            // if (investors[referrerId].totalSum < minSumReferral) continue;\n\n            uint16[] memory percents = getRefPercents(investors[referrerId].totalSum);\n            uint256 value = _sum * percents[i] / 10000;\n            if (investorIdToAddress[referrerId] != 0x0) {\n                investorIdToAddress[referrerId].transfer(value);\n                investors[referrerId].totalReferralIncome = investors[referrerId].totalReferralIncome + value;\n                globalWithdraw = globalWithdraw + value;\n            }\n        }\n    }\n\n    function _distribute(Investor storage _investor, uint256 _sum) private {\n        _distributeReferrers(_investor, _sum);\n        developers.transfer(_sum * developersPercent / 100);\n        marketers.transfer(_sum * marketersPercent / 100);\n    }\n\n    function _registerIfNeeded(uint256 _refId) private returns(uint256) {\n        if (addressToInvestorId[msg.sender] != 0) return 0;\n\n        uint256 id = investors.push(Investor(now, 0, 0, 0, new uint256[](refLevelsCount), 0)) - 1;\n        addressToInvestorId[msg.sender] = id;\n        investorIdToAddress[id] = msg.sender;\n\n        if (_refId != 0)\n            _updateReferrals(id, _refId);\n\n        emit InvestorRegister(msg.sender, id);\n    }\n\n    function deposit(uint256 _refId) public payable returns(uint256) {\n        if (addressToInvestorId[msg.sender] == 0)\n            _registerIfNeeded(_refId);\n\n        Investor storage investor = investors[addressToInvestorId[msg.sender]];\n        uint256 amount = withdrawAmount();\n        investor.lastWithdraw = now;\n        investor.witharawBuffer = amount;\n        investor.totalSum = investor.totalSum + msg.value;\n\n        globalDeposit = globalDeposit + msg.value;\n\n        _distribute(investor, msg.value);\n\n        emit Deposit(msg.sender, msg.value);\n        return investor.totalSum;\n    }\n\n    function withdrawAmount() public view returns(uint256) {\n        Investor memory investor = investors[addressToInvestorId[msg.sender]];\n        return investor.totalSum * getProgramPercent(investor.totalSum) / 8760 * ((now - investor.lastWithdraw) / 3600) / 100 + investor.witharawBuffer;\n    }\n\n    function withdraw() public onlyForExisting returns(uint256) {\n        uint256 amount = withdrawAmount();\n\n        require(amount > 0);\n        require(amount < address(this).balance);\n\n        Investor storage investor = investors[addressToInvestorId[msg.sender]];\n        investor.totalWithdraw = investor.totalWithdraw + amount;\n        investor.lastWithdraw = now;\n        investor.witharawBuffer = 0;\n\n        globalWithdraw = globalWithdraw + amount;\n        msg.sender.transfer(amount);\n\n        emit Withdraw(msg.sender, amount);\n    }\n\n}\n",
  "sourcePath": "/home/artyom/projects/smartinvestments/smart_contract/contracts/SmartInvestments.sol",
  "compiler": {
    "name": "solc",
    "version": "0.4.24+commit.e67f0147.Emscripten.clang"
  },
  "schemaVersion": "2.0.2",
  "updatedAt": "2019-01-11T07:58:52.347Z"
}