{
  "contractName": "Math",
  "abi": [
    {
      "constant": false,
      "inputs": [
        {
          "name": "a",
          "type": "uint256"
        },
        {
          "name": "b",
          "type": "uint256"
        }
      ],
      "name": "max",
      "outputs": [
        {
          "name": "",
          "type": "uint256"
        }
      ],
      "payable": false,
      "stateMutability": "nonpayable",
      "type": "function"
    },
    {
      "constant": false,
      "inputs": [
        {
          "name": "a",
          "type": "uint256"
        },
        {
          "name": "b",
          "type": "uint256"
        }
      ],
      "name": "min",
      "outputs": [
        {
          "name": "",
          "type": "uint256"
        }
      ],
      "payable": false,
      "stateMutability": "nonpayable",
      "type": "function"
    }
  ],
  "bytecode": "0x610162610030600b82828239805160001a6073146000811461002057610022565bfe5b5030600052607381538281f3007300000000000000000000000000000000000000003014608060405260043610610063576000357c0100000000000000000000000000000000000000000000000000000000900463ffffffff1680636d5433e6146100685780637ae2b5c7146100b3575b600080fd5b81801561007457600080fd5b5061009d60048036038101908080359060200190929190803590602001909291905050506100fe565b6040518082815260200191505060405180910390f35b8180156100bf57600080fd5b506100e8600480360381019080803590602001909291908035906020019092919050505061011a565b6040518082815260200191505060405180910390f35b60008183111561011057829050610114565b8190505b92915050565b60008183101561012c57829050610130565b8190505b929150505600a165627a7a72305820e9099893ea0417b359252b4b5c2a7072479dda88e5d2def550733d8a058a16870029",
  "source": "pragma solidity ^0.4.24;\n\nlibrary Math {\n    function max(uint a, uint b) public returns (uint) {\n        if (a > b) return a;\n        else return b;\n    }\n    function min(uint a, uint b) public returns (uint) {\n        if (a < b) return a;\n        else return b;\n    }\n}\n\n",
  "sourcePath": "/home/artyom/projects/smartinvestments/smart_contract/contracts/Math.sol",
  "compiler": {
    "name": "solc",
    "version": "0.4.24+commit.e67f0147.Emscripten.clang"
  },
  "schemaVersion": "3.0.1",
  "updatedAt": "2019-01-09T12:12:29.645Z",
  "devdoc": {
    "methods": {}
  },
  "userdoc": {
    "methods": {}
  }
}