{
  "contractName": "SmartInvestments",
  "abi": [
    {
      "constant": true,
      "inputs": [],
      "name": "marketersPercent",
      "outputs": [
        {
          "name": "",
          "type": "uint256"
        }
      ],
      "payable": false,
      "stateMutability": "view",
      "type": "function"
    },
    {
      "constant": true,
      "inputs": [],
      "name": "globalDeposit",
      "outputs": [
        {
          "name": "",
          "type": "uint256"
        }
      ],
      "payable": false,
      "stateMutability": "view",
      "type": "function"
    },
    {
      "constant": true,
      "inputs": [],
      "name": "minSumRef",
      "outputs": [
        {
          "name": "",
          "type": "uint256"
        }
      ],
      "payable": false,
      "stateMutability": "view",
      "type": "function"
    },
    {
      "constant": true,
      "inputs": [
        {
          "name": "_sum",
          "type": "uint256"
        }
      ],
      "name": "getRefPercents",
      "outputs": [
        {
          "name": "",
          "type": "uint16[]"
        }
      ],
      "payable": false,
      "stateMutability": "view",
      "type": "function"
    },
    {
      "constant": true,
      "inputs": [],
      "name": "developers",
      "outputs": [
        {
          "name": "",
          "type": "address"
        }
      ],
      "payable": false,
      "stateMutability": "view",
      "type": "function"
    },
    {
      "constant": false,
      "inputs": [
        {
          "name": "newMarketers",
          "type": "address"
        }
      ],
      "name": "setMarketers",
      "outputs": [],
      "payable": false,
      "stateMutability": "nonpayable",
      "type": "function"
    },
    {
      "constant": true,
      "inputs": [],
      "name": "developersPercent",
      "outputs": [
        {
          "name": "",
          "type": "uint256"
        }
      ],
      "payable": false,
      "stateMutability": "view",
      "type": "function"
    },
    {
      "constant": true,
      "inputs": [
        {
          "name": "",
          "type": "uint256"
        }
      ],
      "name": "investors",
      "outputs": [
        {
          "name": "lastWithdraw",
          "type": "uint256"
        },
        {
          "name": "totalSum",
          "type": "uint256"
        },
        {
          "name": "totalWithdraw",
          "type": "uint256"
        },
        {
          "name": "totalReferralIncome",
          "type": "uint256"
        },
        {
          "name": "witharawBuffer",
          "type": "uint256"
        }
      ],
      "payable": false,
      "stateMutability": "view",
      "type": "function"
    },
    {
      "constant": true,
      "inputs": [],
      "name": "marketers",
      "outputs": [
        {
          "name": "",
          "type": "address"
        }
      ],
      "payable": false,
      "stateMutability": "view",
      "type": "function"
    },
    {
      "constant": true,
      "inputs": [
        {
          "name": "_index",
          "type": "uint256"
        }
      ],
      "name": "getProgramInfo",
      "outputs": [
        {
          "name": "",
          "type": "uint256"
        },
        {
          "name": "",
          "type": "uint256"
        }
      ],
      "payable": false,
      "stateMutability": "view",
      "type": "function"
    },
    {
      "constant": true,
      "inputs": [
        {
          "name": "",
          "type": "uint256"
        }
      ],
      "name": "refGroups",
      "outputs": [
        {
          "name": "minSum",
          "type": "uint256"
        },
        {
          "name": "maxSum",
          "type": "uint256"
        }
      ],
      "payable": false,
      "stateMutability": "view",
      "type": "function"
    },
    {
      "constant": true,
      "inputs": [],
      "name": "refLevelsTables",
      "outputs": [
        {
          "name": "",
          "type": "uint256"
        }
      ],
      "payable": false,
      "stateMutability": "view",
      "type": "function"
    },
    {
      "constant": false,
      "inputs": [
        {
          "name": "newDevelopers",
          "type": "address"
        }
      ],
      "name": "setDevelopers",
      "outputs": [],
      "payable": false,
      "stateMutability": "nonpayable",
      "type": "function"
    },
    {
      "constant": true,
      "inputs": [],
      "name": "owner",
      "outputs": [
        {
          "name": "",
          "type": "address"
        }
      ],
      "payable": false,
      "stateMutability": "view",
      "type": "function"
    },
    {
      "constant": true,
      "inputs": [
        {
          "name": "",
          "type": "uint256"
        }
      ],
      "name": "programs",
      "outputs": [
        {
          "name": "minSum",
          "type": "uint256"
        },
        {
          "name": "income",
          "type": "uint256"
        }
      ],
      "payable": false,
      "stateMutability": "view",
      "type": "function"
    },
    {
      "constant": true,
      "inputs": [],
      "name": "programsCount",
      "outputs": [
        {
          "name": "",
          "type": "uint256"
        }
      ],
      "payable": false,
      "stateMutability": "view",
      "type": "function"
    },
    {
      "constant": true,
      "inputs": [
        {
          "name": "_index",
          "type": "uint256"
        }
      ],
      "name": "getRefPercentsByIndex",
      "outputs": [
        {
          "name": "",
          "type": "uint16[]"
        }
      ],
      "payable": false,
      "stateMutability": "view",
      "type": "function"
    },
    {
      "constant": true,
      "inputs": [
        {
          "name": "_totalSum",
          "type": "uint256"
        }
      ],
      "name": "getProgramPercent",
      "outputs": [
        {
          "name": "",
          "type": "uint256"
        }
      ],
      "payable": false,
      "stateMutability": "view",
      "type": "function"
    },
    {
      "constant": true,
      "inputs": [],
      "name": "refLevelsCount",
      "outputs": [
        {
          "name": "",
          "type": "uint256"
        }
      ],
      "payable": false,
      "stateMutability": "view",
      "type": "function"
    },
    {
      "constant": true,
      "inputs": [],
      "name": "globalWithdraw",
      "outputs": [
        {
          "name": "",
          "type": "uint256"
        }
      ],
      "payable": false,
      "stateMutability": "view",
      "type": "function"
    },
    {
      "constant": false,
      "inputs": [
        {
          "name": "newOwner",
          "type": "address"
        }
      ],
      "name": "transferOwnership",
      "outputs": [],
      "payable": false,
      "stateMutability": "nonpayable",
      "type": "function"
    },
    {
      "inputs": [],
      "payable": true,
      "stateMutability": "payable",
      "type": "constructor"
    },
    {
      "payable": true,
      "stateMutability": "payable",
      "type": "fallback"
    },
    {
      "anonymous": false,
      "inputs": [
        {
          "indexed": false,
          "name": "_addr",
          "type": "address"
        },
        {
          "indexed": false,
          "name": "_id",
          "type": "uint256"
        }
      ],
      "name": "InvestorRegister",
      "type": "event"
    },
    {
      "anonymous": false,
      "inputs": [
        {
          "indexed": false,
          "name": "_addr",
          "type": "address"
        },
        {
          "indexed": false,
          "name": "_refferal",
          "type": "address"
        }
      ],
      "name": "ReferralRegister",
      "type": "event"
    },
    {
      "anonymous": false,
      "inputs": [
        {
          "indexed": false,
          "name": "_addr",
          "type": "address"
        },
        {
          "indexed": false,
          "name": "_value",
          "type": "uint256"
        }
      ],
      "name": "Deposit",
      "type": "event"
    },
    {
      "anonymous": false,
      "inputs": [
        {
          "indexed": false,
          "name": "_referrerId",
          "type": "uint256"
        },
        {
          "indexed": false,
          "name": "_sum",
          "type": "uint256"
        }
      ],
      "name": "ReferrerDistribute",
      "type": "event"
    },
    {
      "anonymous": false,
      "inputs": [
        {
          "indexed": false,
          "name": "_addr",
          "type": "address"
        },
        {
          "indexed": false,
          "name": "_sum",
          "type": "uint256"
        }
      ],
      "name": "Withdraw",
      "type": "event"
    },
    {
      "anonymous": false,
      "inputs": [
        {
          "indexed": true,
          "name": "previousOwner",
          "type": "address"
        },
        {
          "indexed": true,
          "name": "newOwner",
          "type": "address"
        }
      ],
      "name": "OwnershipTransferred",
      "type": "event"
    },
    {
      "anonymous": false,
      "inputs": [
        {
          "indexed": true,
          "name": "previousDevelopers",
          "type": "address"
        },
        {
          "indexed": true,
          "name": "newDevelopers",
          "type": "address"
        }
      ],
      "name": "DevelopersChanged",
      "type": "event"
    },
    {
      "anonymous": false,
      "inputs": [
        {
          "indexed": true,
          "name": "previousMarketers",
          "type": "address"
        },
        {
          "indexed": true,
          "name": "newMarketers",
          "type": "address"
        }
      ],
      "name": "MarketersChanged",
      "type": "event"
    },
    {
      "constant": true,
      "inputs": [
        {
          "name": "_id",
          "type": "uint256"
        }
      ],
      "name": "getInvestorInfo",
      "outputs": [
        {
          "name": "",
          "type": "uint256"
        },
        {
          "name": "",
          "type": "uint256"
        },
        {
          "name": "",
          "type": "uint256"
        },
        {
          "name": "",
          "type": "uint256"
        },
        {
          "name": "",
          "type": "uint256[]"
        },
        {
          "name": "",
          "type": "uint256[]"
        }
      ],
      "payable": false,
      "stateMutability": "view",
      "type": "function"
    },
    {
      "constant": true,
      "inputs": [
        {
          "name": "_address",
          "type": "address"
        }
      ],
      "name": "getInvestorId",
      "outputs": [
        {
          "name": "",
          "type": "uint256"
        }
      ],
      "payable": false,
      "stateMutability": "view",
      "type": "function"
    },
    {
      "constant": true,
      "inputs": [
        {
          "name": "_id",
          "type": "uint256"
        }
      ],
      "name": "getInvestorAddress",
      "outputs": [
        {
          "name": "",
          "type": "address"
        }
      ],
      "payable": false,
      "stateMutability": "view",
      "type": "function"
    },
    {
      "constant": true,
      "inputs": [],
      "name": "investorsCount",
      "outputs": [
        {
          "name": "",
          "type": "uint256"
        }
      ],
      "payable": false,
      "stateMutability": "view",
      "type": "function"
    },
    {
      "constant": false,
      "inputs": [
        {
          "name": "_refId",
          "type": "uint256"
        }
      ],
      "name": "deposit",
      "outputs": [
        {
          "name": "",
          "type": "uint256"
        }
      ],
      "payable": true,
      "stateMutability": "payable",
      "type": "function"
    },
    {
      "constant": true,
      "inputs": [],
      "name": "withdrawAmount",
      "outputs": [
        {
          "name": "",
          "type": "uint256"
        }
      ],
      "payable": false,
      "stateMutability": "view",
      "type": "function"
    },
    {
      "constant": false,
      "inputs": [],
      "name": "withdraw",
      "outputs": [
        {
          "name": "",
          "type": "uint256"
        }
      ],
      "payable": false,
      "stateMutability": "nonpayable",
      "type": "function"
    }
  ],
  "bytecode": "0x608060405273b68e8c1eac20e6b3c92fbb9a601f9fa1e0475d59600160006101000a81548173ffffffffffffffffffffffffffffffffffffffff021916908373ffffffffffffffffffffffffffffffffffffffff16021790555073b68e8c1eac20e6b3c92fbb9a601f9fa1e0475d59600260006101000a81548173ffffffffffffffffffffffffffffffffffffffff021916908373ffffffffffffffffffffffffffffffffffffffff160217905550620000b862000f44565b620000c262000f44565b620000cc62000f44565b336000806101000a81548173ffffffffffffffffffffffffffffffffffffffff021916908373ffffffffffffffffffffffffffffffffffffffff160217905550606060405190810160405280662386f26fc100008152602001678ac7230489e7ffff81526020016005604051908082528060200260200182016040528015620001645781602001602082028038833980820191505090505b50815250925061012c836040015160008151811015156200018157fe5b9060200190602002019061ffff16908161ffff1681525050604b83604001516001815181101515620001af57fe5b9060200190602002019061ffff16908161ffff1681525050603c83604001516002815181101515620001dd57fe5b9060200190602002019061ffff16908161ffff16815250506028836040015160038151811015156200020b57fe5b9060200190602002019061ffff16908161ffff16815250506019836040015160048151811015156200023957fe5b9060200190602002019061ffff16908161ffff16815250506003839080600181540180825580915050906001820390600052602060002090600302016000909192909190915060008201518160000155602082015181600101556040820151816002019080519060200190620002b192919062000f66565b50505050606060405190810160405280678ac7230489e80000815260200168056bc75e2d630fffff815260200160056040519080825280602002602001820160405280156200030f5781602001602082028038833980820191505090505b5081525091506101f4826040015160008151811015156200032c57fe5b9060200190602002019061ffff16908161ffff168152505060c8826040015160018151811015156200035a57fe5b9060200190602002019061ffff16908161ffff16815250506096826040015160028151811015156200038857fe5b9060200190602002019061ffff16908161ffff1681525050606482604001516003815181101515620003b657fe5b9060200190602002019061ffff16908161ffff1681525050603282604001516004815181101515620003e457fe5b9060200190602002019061ffff16908161ffff168152505060038290806001815401808255809150509060018203906000526020600020906003020160009091929091909150600082015181600001556020820151816001015560408201518160020190805190602001906200045c92919062000f66565b5050505060606040519081016040528068056bc75e2d6310000081526020017fffffffffffffffffffffffffffffffffffffffffffffffffffffffffffffffff81526020016005604051908082528060200260200182016040528015620004d25781602001602082028038833980820191505090505b5081525090506102bc81604001516000815181101515620004ef57fe5b9060200190602002019061ffff16908161ffff168152505061012c816040015160018151811015156200051e57fe5b9060200190602002019061ffff16908161ffff168152505060fa816040015160028151811015156200054c57fe5b9060200190602002019061ffff16908161ffff16815250506096816040015160038151811015156200057a57fe5b9060200190602002019061ffff16908161ffff1681525050606481604001516004815181101515620005a857fe5b9060200190602002019061ffff16908161ffff168152505060038190806001815401808255809150509060018203906000526020600020906003020160009091929091909150600082015181600001556020820151816001015560408201518160020190805190602001906200062092919062000f66565b5050505060046040805190810160405280662386f26fc10000815260200160b48152509080600181540180825580915050906001820390600052602060002090600202016000909192909190915060008201518160000155602082015181600101555050506004604080519081016040528067039bb49f599a0000815260200160c081525090806001815401808255809150509060018203906000526020600020906002020160009091929091909150600082015181600001556020820151816001015550505060046040805190810160405280670a8c0ff92d4c0000815260200160cc815250908060018154018082558091505090600182039060005260206000209060020201600090919290919091506000820151816000015560208201518160010155505050600460408051908101604052806714f498ffead70000815260200160d8815250908060018154018082558091505090600182039060005260206000209060020201600090919290919091506000820151816000015560208201518160010155505050600460408051908101604052806722d54fb3923b0000815260200160e481525090806001815401808255809150509060018203906000526020600020906002020160009091929091909150600082015181600001556020820151816001015550505060046040805190810160405280673e96bd1ae1030000815260200160f08152509080600181540180825580915050906001820390600052602060002090600202016000909192909190915060008201518160000155602082015181600101555050506004604080519081016040528067614885dc037d0000815260200160fc81525090806001815401808255809150509060018203906000526020600020906002020160009091929091909150600082015181600001556020820151816001015550505060046040805190810160405280678aeaa9f6f9a9000081526020016101088152509080600181540180825580915050906001820390600052602060002090600202016000909192909190915060008201518160000155602082015181600101555050506004604080519081016040528067c26d84c59739000081526020016101148152509080600181540180825580915050906001820390600052602060002090600202016000909192909190915060008201518160000155602082015181600101555050506004604080519081016040528067f9f05f9434c9000081526020016101208152509080600181540180825580915050906001820390600052602060002090600202016000909192909190915060008201518160000155602082015181600101555050506004604080519081016040528068013f53f11679bd0000815260200161012c81525090806001815401808255809150509060018203906000526020600020906002020160009091929091909150600082015181600001556020820151816001015550505060046040805190810160405280680184b78298beb100008152602001610138815250908060018154018082558091505090600182039060005260206000209060020201600090919290919091506000820151816000015560208201518160010155505050600460408051908101604052806801d7fbcaceab09000081526020016101448152509080600181540180825580915050906001820390600052602060002090600202016000909192909190915060008201518160000155602082015181600101555050506004604080519081016040528068023920c9b83ec500008152602001610150815250908060018154018082558091505090600182039060005260206000209060020201600090919290919091506000820151816000015560208201518160010155505050600460408051908101604052806802b5e3af16b1880000815260200161015c81525090806001815401808255809150509060018203906000526020600020906002020160009091929091909150600082015181600001556020820151816001015550505060046040805190810160405280680340aad21b3b700000815260200161016881525090806001815401808255809150509060018203906000526020600020906002020160009091929091909150600082015181600001556020820151816001015550505060046040805190810160405280680410d586a20a4c000081526020016101748152509080600181540180825580915050906001820390600052602060002090600202016000909192909190915060008201518160000155602082015181600101555050506004604080519081016040528068052663ccab1e1c000081526020016101808152509080600181540180825580915050906001820390600052602060002090600202016000909192909190915060008201518160000155602082015181600101555050506004604080519081016040528068068155a43676e00000815260200161018c81525090806001815401808255809150509060018203906000526020600020906002020160009091929091909150600082015181600001556020820151816001015550505060046040805190810160405280680821ab0d4414980000815260200161019881525090806001815401808255809150509060018203906000526020600020906002020160009091929091909150600082015181600001556020820151816001015550505060046040805190810160405280680ad78ebc5ac620000081526020016101a481525090806001815401808255809150509060018203906000526020600020906002020160009091929091909150600082015181600001556020820151816001015550505050505060006005819055506000600681905550600760c06040519081016040528060008152602001600081526020016000815260200160008152602001600560405190808252806020026020018201604052801562000eb45781602001602082028038833980820191505090505b50815260200160008152509080600181540180825580915050906001820390600052602060002090600702016000909192909190915060008201518160000155602082015181600101556040820151816002015560608201518160030155608082015181600401908051906020019062000f3092919062001017565b5060a08201518160060155505050620010c5565b6060604051908101604052806000815260200160008152602001606081525090565b82805482825590600052602060002090600f01601090048101928215620010045791602002820160005b8382111562000fd257835183826101000a81548161ffff021916908361ffff160217905550926020019260020160208160010104928301926001030262000f90565b8015620010025782816101000a81549061ffff021916905560020160208160010104928301926001030262000fd2565b505b50905062001013919062001069565b5090565b82805482825590600052602060002090810192821562001056579160200282015b828111156200105557825182559160200191906001019062001038565b5b5090506200106591906200109d565b5090565b6200109a91905b808211156200109657600081816101000a81549061ffff02191690555060010162001070565b5090565b90565b620010c291905b80821115620010be576000816000905550600101620010a4565b5090565b90565b61218a80620010d56000396000f30060806040526004361061016a576000357c0100000000000000000000000000000000000000000000000000000000900463ffffffff1680630185f4091461018f5780630f3fc087146101fc57806312920c7e14610227578063169b15dd146102525780631726d2c51461027d5780632b711051146102ff5780632bc31ca41461032a57806339347d52146103815780633a033915146103c45780633ccfd60b146103ef5780633feb5f2b1461041a57806341c969641461047757806342583c021461055d5780634b5a726d146105b45780635106edeb146105fc578063534844a2146106535780635e047d581461067e57806382f470aa146106c65780638ab476bf146106f15780638da5cb5b1461073457806392db28161461078b57806396a2ddfa146107d3578063a1b77835146107fe578063b32142a014610880578063b547e844146108c1578063b6b55f25146108ec578063c04324b514610920578063f2fde38b1461094b575b60003411156101835761017d600061098e565b5061018d565b61018b610afc565b505b005b34801561019b57600080fd5b506101ba60048036038101908080359060200190929190505050610ccf565b604051808273ffffffffffffffffffffffffffffffffffffffff1673ffffffffffffffffffffffffffffffffffffffff16815260200191505060405180910390f35b34801561020857600080fd5b50610211610d0c565b6040518082815260200191505060405180910390f35b34801561023357600080fd5b5061023c610d11565b6040518082815260200191505060405180910390f35b34801561025e57600080fd5b50610267610d17565b6040518082815260200191505060405180910390f35b34801561028957600080fd5b506102a860048036038101908080359060200190929190505050610d22565b6040518080602001828103825283818151815260200191508051906020019060200280838360005b838110156102eb5780820151818401526020810190506102d0565b505050509050019250505060405180910390f35b34801561030b57600080fd5b50610314610e39565b6040518082815260200191505060405180910390f35b34801561033657600080fd5b5061033f610e46565b604051808273ffffffffffffffffffffffffffffffffffffffff1673ffffffffffffffffffffffffffffffffffffffff16815260200191505060405180910390f35b34801561038d57600080fd5b506103c2600480360381019080803573ffffffffffffffffffffffffffffffffffffffff169060200190929190505050610e6c565b005b3480156103d057600080fd5b506103d9610fc3565b6040518082815260200191505060405180910390f35b3480156103fb57600080fd5b50610404610afc565b6040518082815260200191505060405180910390f35b34801561042657600080fd5b5061044560048036038101908080359060200190929190505050610fc8565b604051808681526020018581526020018481526020018381526020018281526020019550505050505060405180910390f35b34801561048357600080fd5b506104a26004803603810190808035906020019092919050505061100d565b604051808781526020018681526020018581526020018481526020018060200180602001838103835285818151815260200191508051906020019060200280838360005b838110156105015780820151818401526020810190506104e6565b50505050905001838103825284818151815260200191508051906020019060200280838360005b83811015610543578082015181840152602081019050610528565b505050509050019850505050505050505060405180910390f35b34801561056957600080fd5b5061057261118e565b604051808273ffffffffffffffffffffffffffffffffffffffff1673ffffffffffffffffffffffffffffffffffffffff16815260200191505060405180910390f35b3480156105c057600080fd5b506105df600480360381019080803590602001909291905050506111b4565b604051808381526020018281526020019250505060405180910390f35b34801561060857600080fd5b5061063d600480360381019080803573ffffffffffffffffffffffffffffffffffffffff169060200190929190505050611202565b6040518082815260200191505060405180910390f35b34801561065f57600080fd5b5061066861124b565b6040518082815260200191505060405180910390f35b34801561068a57600080fd5b506106a960048036038101908080359060200190929190505050611396565b604051808381526020018281526020019250505060405180910390f35b3480156106d257600080fd5b506106db6113c9565b6040518082815260200191505060405180910390f35b3480156106fd57600080fd5b50610732600480360381019080803573ffffffffffffffffffffffffffffffffffffffff1690602001909291905050506113ce565b005b34801561074057600080fd5b50610749611525565b604051808273ffffffffffffffffffffffffffffffffffffffff1673ffffffffffffffffffffffffffffffffffffffff16815260200191505060405180910390f35b34801561079757600080fd5b506107b66004803603810190808035906020019092919050505061154a565b604051808381526020018281526020019250505060405180910390f35b3480156107df57600080fd5b506107e861157d565b6040518082815260200191505060405180910390f35b34801561080a57600080fd5b5061082960048036038101908080359060200190929190505050611582565b6040518080602001828103825283818151815260200191508051906020019060200280838360005b8381101561086c578082015181840152602081019050610851565b505050509050019250505060405180910390f35b34801561088c57600080fd5b506108ab60048036038101908080359060200190929190505050611622565b6040518082815260200191505060405180910390f35b3480156108cd57600080fd5b506108d66116b9565b6040518082815260200191505060405180910390f35b61090a6004803603810190808035906020019092919050505061098e565b6040518082815260200191505060405180910390f35b34801561092c57600080fd5b506109356116be565b6040518082815260200191505060405180910390f35b34801561095757600080fd5b5061098c600480360381019080803573ffffffffffffffffffffffffffffffffffffffff1690602001909291905050506116c4565b005b600080600080600860003373ffffffffffffffffffffffffffffffffffffffff1673ffffffffffffffffffffffffffffffffffffffff1681526020019081526020016000205414156109e5576109e384611819565b505b6007600860003373ffffffffffffffffffffffffffffffffffffffff1673ffffffffffffffffffffffffffffffffffffffff16815260200190815260200160002054815481101515610a3357fe5b90600052602060002090600702019150610a4b61124b565b90504282600001819055508082600601819055503482600101540182600101819055503460055401600581905550610a838234611a70565b7fe1fffcc4923d04b559f4d29a8bfc6cda04eb5b0d3c460751c2402c5c5cc9109c3334604051808373ffffffffffffffffffffffffffffffffffffffff1673ffffffffffffffffffffffffffffffffffffffff1681526020018281526020019250505060405180910390a1816001015492505050919050565b600080600080600860003373ffffffffffffffffffffffffffffffffffffffff1673ffffffffffffffffffffffffffffffffffffffff1681526020019081526020016000205414151515610b4f57600080fd5b610b5761124b565b9150600082111515610b6857600080fd5b3073ffffffffffffffffffffffffffffffffffffffff163182101515610b8d57600080fd5b6007600860003373ffffffffffffffffffffffffffffffffffffffff1673ffffffffffffffffffffffffffffffffffffffff16815260200190815260200160002054815481101515610bdb57fe5b906000526020600020906007020190508181600201540181600201819055504281600001819055506000816006018190555081600654016006819055503373ffffffffffffffffffffffffffffffffffffffff166108fc839081150290604051600060405180830381858888f19350505050158015610c5e573d6000803e3d6000fd5b507f884edad9ce6fa2440d8a54cc123490eb96d2768479d49ff9c7366125a94243643383604051808373ffffffffffffffffffffffffffffffffffffffff1673ffffffffffffffffffffffffffffffffffffffff1681526020018281526020019250505060405180910390a1505090565b60006009600083815260200190815260200160002060009054906101000a900473ffffffffffffffffffffffffffffffffffffffff169050919050565b600e81565b60055481565b662386f26fc1000081565b60606000610d2e612093565b600091505b6003821015610e3157600382815481101515610d4b57fe5b906000526020600020906003020160606040519081016040529081600082015481526020016001820154815260200160028201805480602002602001604051908101604052809291908181526020018280548015610df057602002820191906000526020600020906000905b82829054906101000a900461ffff1661ffff1681526020019060020190602082600101049283019260010382029150808411610db75790505b505050505081525050905080600001518410158015610e13575080602001518411155b15610e245780604001519250610e32565b8180600101925050610d33565b5b5050919050565b6000600780549050905090565b600160009054906101000a900473ffffffffffffffffffffffffffffffffffffffff1681565b6000809054906101000a900473ffffffffffffffffffffffffffffffffffffffff1673ffffffffffffffffffffffffffffffffffffffff163373ffffffffffffffffffffffffffffffffffffffff16141515610ec757600080fd5b600073ffffffffffffffffffffffffffffffffffffffff168173ffffffffffffffffffffffffffffffffffffffff1614151515610f0357600080fd5b8073ffffffffffffffffffffffffffffffffffffffff16600260009054906101000a900473ffffffffffffffffffffffffffffffffffffffff1673ffffffffffffffffffffffffffffffffffffffff167f5650bc3484c51d95070941164495fa61356f571133f65393510e90fa461118fc60405160405180910390a380600260006101000a81548173ffffffffffffffffffffffffffffffffffffffff021916908373ffffffffffffffffffffffffffffffffffffffff16021790555050565b600181565b600781815481101515610fd757fe5b90600052602060002090600702016000915090508060000154908060010154908060020154908060030154908060060154905085565b60008060008060608061101e6120b5565b60078881548110151561102d57fe5b906000526020600020906007020160c0604051908101604052908160008201548152602001600182015481526020016002820154815260200160038201548152602001600482018054806020026020016040519081016040528092919081815260200182805480156110be57602002820191906000526020600020905b8154815260200190600101908083116110aa575b5050505050815260200160068201548152505090508060000151816020015182604001518360600151846080015160078d8154811015156110fb57fe5b906000526020600020906007020160050160008060ff1660ff1681526020019081526020016000208191508080548060200260200160405190810160405280929190818152602001828054801561117157602002820191906000526020600020905b81548152602001906001019080831161115d575b505050505090509650965096509650965096505091939550919395565b600260009054906101000a900473ffffffffffffffffffffffffffffffffffffffff1681565b6000806004838154811015156111c657fe5b9060005260206000209060020201600001546004848154811015156111e757fe5b90600052602060002090600202016001015491509150915091565b6000600860008373ffffffffffffffffffffffffffffffffffffffff1673ffffffffffffffffffffffffffffffffffffffff168152602001908152602001600020549050919050565b60006112556120b5565b6007600860003373ffffffffffffffffffffffffffffffffffffffff1673ffffffffffffffffffffffffffffffffffffffff168152602001908152602001600020548154811015156112a357fe5b906000526020600020906007020160c06040519081016040529081600082015481526020016001820154815260200160028201548152602001600382015481526020016004820180548060200260200160405190810160405280929190818152602001828054801561133457602002820191906000526020600020905b815481526020019060010190808311611320575b5050505050815260200160068201548152505090508060a001516064610e108360000151420381151561136357fe5b046122386113748560200151611622565b85602001510281151561138357fe5b040281151561138e57fe5b040191505090565b6003818154811015156113a557fe5b90600052602060002090600302016000915090508060000154908060010154905082565b600381565b6000809054906101000a900473ffffffffffffffffffffffffffffffffffffffff1673ffffffffffffffffffffffffffffffffffffffff163373ffffffffffffffffffffffffffffffffffffffff1614151561142957600080fd5b600073ffffffffffffffffffffffffffffffffffffffff168173ffffffffffffffffffffffffffffffffffffffff161415151561146557600080fd5b8073ffffffffffffffffffffffffffffffffffffffff16600160009054906101000a900473ffffffffffffffffffffffffffffffffffffffff1673ffffffffffffffffffffffffffffffffffffffff167f7d28dbfe9b3b0a2416f60ca7bc6f6cd19d476b00cec731d9c37ac02a09613d7360405160405180910390a380600160006101000a81548173ffffffffffffffffffffffffffffffffffffffff021916908373ffffffffffffffffffffffffffffffffffffffff16021790555050565b6000809054906101000a900473ffffffffffffffffffffffffffffffffffffffff1681565b60048181548110151561155957fe5b90600052602060002090600202016000915090508060000154908060010154905082565b601581565b606060038281548110151561159357fe5b906000526020600020906003020160020180548060200260200160405190810160405280929190818152602001828054801561161657602002820191906000526020600020906000905b82829054906101000a900461ffff1661ffff16815260200190600201906020826001010492830192600103820291508084116115dd5790505b50505050509050919050565b6000806000809150600090505b601581101561167c5760048181548110151561164757fe5b9060005260206000209060020201600001548410151561166a576001915061166f565b61167c565b808060010191505061162f565b81156116ad5760046001820381548110151561169457fe5b90600052602060002090600202016001015492506116b2565b600092505b5050919050565b600581565b60065481565b6000809054906101000a900473ffffffffffffffffffffffffffffffffffffffff1673ffffffffffffffffffffffffffffffffffffffff163373ffffffffffffffffffffffffffffffffffffffff1614151561171f57600080fd5b600073ffffffffffffffffffffffffffffffffffffffff168173ffffffffffffffffffffffffffffffffffffffff161415151561175b57600080fd5b8073ffffffffffffffffffffffffffffffffffffffff166000809054906101000a900473ffffffffffffffffffffffffffffffffffffffff1673ffffffffffffffffffffffffffffffffffffffff167f8be0079c531659141344cd1fd0a4f28419497f9722a3daafe3b4186f6b6457e060405160405180910390a3806000806101000a81548173ffffffffffffffffffffffffffffffffffffffff021916908373ffffffffffffffffffffffffffffffffffffffff16021790555050565b6000806000600860003373ffffffffffffffffffffffffffffffffffffffff1673ffffffffffffffffffffffffffffffffffffffff1681526020019081526020016000205414151561186e5760009150611a6a565b6001600760c06040519081016040528042815260200160008152602001600081526020016000815260200160056040519080825280602002602001820160405280156118c95781602001602082028038833980820191505090505b5081526020016000815250908060018154018082558091505090600182039060005260206000209060070201600090919290919091506000820151816000015560208201518160010155604082015181600201556060820151816003015560808201518160040190805190602001906119439291906120ec565b5060a08201518160060155505003905080600860003373ffffffffffffffffffffffffffffffffffffffff1673ffffffffffffffffffffffffffffffffffffffff16815260200190815260200160002081905550336009600083815260200190815260200160002060006101000a81548173ffffffffffffffffffffffffffffffffffffffff021916908373ffffffffffffffffffffffffffffffffffffffff1602179055506000831415156119fe576119fd8184611c04565b5b7fae113c9cbae6738145294475bea985e0336ca46961a9cfd432acb8a6d80762bb3382604051808373ffffffffffffffffffffffffffffffffffffffff1673ffffffffffffffffffffffffffffffffffffffff1681526020018281526020019250505060405180910390a15b50919050565b611b108260c060405190810160405290816000820154815260200160018201548152602001600282015481526020016003820154815260200160048201805480602002602001604051908101604052809291908181526020018280548015611af757602002820191906000526020600020905b815481526020019060010190808311611ae3575b5050505050815260200160068201548152505082611ea8565b600160009054906101000a900473ffffffffffffffffffffffffffffffffffffffff1673ffffffffffffffffffffffffffffffffffffffff166108fc606460018402811515611b5b57fe5b049081150290604051600060405180830381858888f19350505050158015611b87573d6000803e3d6000fd5b50600260009054906101000a900473ffffffffffffffffffffffffffffffffffffffff1673ffffffffffffffffffffffffffffffffffffffff166108fc6064600e8402811515611bd357fe5b049081150290604051600060405180830381858888f19350505050158015611bff573d6000803e3d6000fd5b505050565b60008082841415611c1457611ea2565b82600785815481101515611c2457fe5b90600052602060002090600702016004016000815481101515611c4357fe5b9060005260206000200181905550600191505b6005821015611d4657600783815481101515611c6e57fe5b906000526020600020906007020160040160018303815481101515611c8f57fe5b9060005260206000200154905080600785815481101515611cac57fe5b906000526020600020906007020160040183815481101515611cca57fe5b9060005260206000200181905550600781815481101515611ce757fe5b906000526020600020906007020160050160008360ff1660ff1681526020019081526020016000208490806001815401808255809150509060018203906000526020600020016000909192909190915055508180600101925050611c56565b600783815481101515611d5557fe5b906000526020600020906007020160050160008060ff1681526020019081526020016000208490806001815401808255809150509060018203906000526020600020016000909192909190915055507f6fe19d2f49909131887f63f825d099fe66f8d640410b5f604c9a7958d04846b66009600086815260200190815260200160002060009054906101000a900473ffffffffffffffffffffffffffffffffffffffff166009600086815260200190815260200160002060009054906101000a900473ffffffffffffffffffffffffffffffffffffffff16604051808373ffffffffffffffffffffffffffffffffffffffff1673ffffffffffffffffffffffffffffffffffffffff1681526020018273ffffffffffffffffffffffffffffffffffffffff1673ffffffffffffffffffffffffffffffffffffffff1681526020019250505060405180910390a15b50505050565b60606000806060600086608001519450600093505b600584101561208a578484815181101515611ed457fe5b90602001906020020151925060008585815181101515611ef057fe5b906020019060200201511415611f055761208a565b611f2e600784815481101515611f1757fe5b906000526020600020906007020160010154610d22565b91506127108285815181101515611f4157fe5b9060200190602002015161ffff168702811515611f5a57fe5b04905060006009600085815260200190815260200160002060009054906101000a900473ffffffffffffffffffffffffffffffffffffffff1673ffffffffffffffffffffffffffffffffffffffff1614151561207d576009600084815260200190815260200160002060009054906101000a900473ffffffffffffffffffffffffffffffffffffffff1673ffffffffffffffffffffffffffffffffffffffff166108fc829081150290604051600060405180830381858888f19350505050158015612029573d6000803e3d6000fd5b508060078481548110151561203a57fe5b9060005260206000209060070201600301540160078481548110151561205c57fe5b90600052602060002090600702016003018190555080600654016006819055505b8380600101945050611ebd565b50505050505050565b6060604051908101604052806000815260200160008152602001606081525090565b60c0604051908101604052806000815260200160008152602001600081526020016000815260200160608152602001600081525090565b828054828255906000526020600020908101928215612128579160200282015b8281111561212757825182559160200191906001019061210c565b5b5090506121359190612139565b5090565b61215b91905b8082111561215757600081600090555060010161213f565b5090565b905600a165627a7a723058205158c956cdc406d6545414690a58ab804c562fbfb76790573bf9d9ece23061c10029",
  "source": "pragma solidity ^0.4.24;\n\n/*\n\n  /$$$$$$                                      /$$           /$$$$$$                                           /$$                                         /$$\n /$$__  $$                                    | $$          |_  $$_/                                          | $$                                        | $$\n| $$  \\__/ /$$$$$$/$$$$   /$$$$$$   /$$$$$$  /$$$$$$          | $$   /$$$$$$$  /$$    /$$ /$$$$$$   /$$$$$$$ /$$$$$$   /$$$$$$/$$$$   /$$$$$$  /$$$$$$$  /$$$$$$   /$$$$$$$\n|  $$$$$$ | $$_  $$_  $$ |____  $$ /$$__  $$|_  $$_/          | $$  | $$__  $$|  $$  /$$//$$__  $$ /$$_____/|_  $$_/  | $$_  $$_  $$ /$$__  $$| $$__  $$|_  $$_/  /$$_____/\n \\____  $$| $$ \\ $$ \\ $$  /$$$$$$$| $$  \\__/  | $$            | $$  | $$  \\ $$ \\  $$/$$/| $$$$$$$$|  $$$$$$   | $$    | $$ \\ $$ \\ $$| $$$$$$$$| $$  \\ $$  | $$   |  $$$$$$\n /$$  \\ $$| $$ | $$ | $$ /$$__  $$| $$        | $$ /$$        | $$  | $$  | $$  \\  $$$/ | $$_____/ \\____  $$  | $$ /$$| $$ | $$ | $$| $$_____/| $$  | $$  | $$ /$$\\____  $$\n|  $$$$$$/| $$ | $$ | $$|  $$$$$$$| $$        |  $$$$/       /$$$$$$| $$  | $$   \\  $/  |  $$$$$$$ /$$$$$$$/  |  $$$$/| $$ | $$ | $$|  $$$$$$$| $$  | $$  |  $$$$//$$$$$$$/\n \\______/ |__/ |__/ |__/ \\_______/|__/         \\___/        |______/|__/  |__/    \\_/    \\_______/|_______/    \\___/  |__/ |__/ |__/ \\_______/|__/  |__/   \\___/ |_______/\n\n*/\n\nimport \"./Ownable.sol\";\n\ncontract Investments {\n\n    struct InvestProgram {\n        uint256 minSum;     // min sum for program\n        uint256 income;     // income for one year\n    }\n\n    struct ReferralGroup {\n        uint256 minSum;\n        uint256 maxSum;\n        uint16[] percents;\n    }\n\n    uint256 public constant minSumRef = 0.01 ether;\n    uint256 public constant refLevelsTables = 3;\n    uint256 public constant refLevelsCount = 5;\n    ReferralGroup[] public refGroups;\n    uint256 public constant programsCount = 21;\n    InvestProgram[] public programs;\n\n    constructor() public {\n        ReferralGroup memory refGroupFirsty = ReferralGroup(minSumRef, 10 ether - 1 wei, new uint16[](refLevelsCount));\n        refGroupFirsty.percents[0] = 300;   // 3%\n        refGroupFirsty.percents[1] = 75;    // 0.75%\n        refGroupFirsty.percents[2] = 60;    // 0.6%\n        refGroupFirsty.percents[3] = 40;    // 0.4%\n        refGroupFirsty.percents[4] = 25;    // 0.25%\n        refGroups.push(refGroupFirsty);\n\n        ReferralGroup memory refGroupLoyalty = ReferralGroup(10 ether, 100 ether - 1 wei, new uint16[](refLevelsCount));\n        refGroupLoyalty.percents[0] = 500;  // 5%\n        refGroupLoyalty.percents[1] = 200;  // 2%\n        refGroupLoyalty.percents[2] = 150;  // 1.5%\n        refGroupLoyalty.percents[3] = 100;  // 1%\n        refGroupLoyalty.percents[4] = 50;   // 0.5%\n        refGroups.push(refGroupLoyalty);\n\n        ReferralGroup memory refGroupUltraPremium = ReferralGroup(100 ether, 2**256 - 1, new uint16[](refLevelsCount));\n        refGroupUltraPremium.percents[0] = 700; // 7%\n        refGroupUltraPremium.percents[1] = 300; // 3%\n        refGroupUltraPremium.percents[2] = 250; // 2.5%\n        refGroupUltraPremium.percents[3] = 150; // 1.5%\n        refGroupUltraPremium.percents[4] = 100; // 1%\n        refGroups.push(refGroupUltraPremium);\n\n        programs.push(InvestProgram(0.01    ether, 180));   // 180%\n        programs.push(InvestProgram(0.26    ether, 192));   // 192%\n        programs.push(InvestProgram(0.76    ether, 204));   // 204%\n        programs.push(InvestProgram(1.51    ether, 216));   // 216%\n        programs.push(InvestProgram(2.51    ether, 228));   // 228%\n        programs.push(InvestProgram(4.51    ether, 240));   // 240%\n        programs.push(InvestProgram(7.01    ether, 252));   // 252%\n        programs.push(InvestProgram(10.01   ether, 264));   // 264%\n        programs.push(InvestProgram(14.01   ether, 276));   // 276%\n        programs.push(InvestProgram(18.01   ether, 288));   // 288%\n        programs.push(InvestProgram(23.01   ether, 300));   // 300%\n        programs.push(InvestProgram(28.01   ether, 312));   // 312%\n        programs.push(InvestProgram(34.01   ether, 324));   // 324%\n        programs.push(InvestProgram(41.01   ether, 336));   // 336%\n        programs.push(InvestProgram(50      ether, 348));   // 348%\n        programs.push(InvestProgram(60      ether, 360));   // 360%\n        programs.push(InvestProgram(75      ether, 372));   // 372%\n        programs.push(InvestProgram(95      ether, 384));   // 384%\n        programs.push(InvestProgram(120     ether, 396));   // 396%\n        programs.push(InvestProgram(150     ether, 408));   // 408%\n        programs.push(InvestProgram(200     ether, 420));   // 420%\n    }\n\n    function getRefPercents(uint256 _sum) public view returns(uint16[] memory) {\n        for (uint i = 0; i < refLevelsTables; i++) {\n            ReferralGroup memory group = refGroups[i];\n            if (_sum >= group.minSum && _sum <= group.maxSum) return group.percents;\n        }\n    }\n\n    function getRefPercentsByIndex(uint256 _index) public view returns(uint16[] memory) {\n        return refGroups[_index].percents;\n    }\n\n    function getProgramInfo(uint256 _index) public view returns(uint256, uint256) {\n        return (programs[_index].minSum, programs[_index].income);\n    }\n\n    function getProgramPercent(uint256 _totalSum) public view returns(uint256) {\n        bool exist = false;\n        uint256 i = 0;\n        for (; i < programsCount; i++) {\n            if (_totalSum >= programs[i].minSum) exist = true;\n            else break;\n        }\n\n        if (exist) return programs[i - 1].income;\n\n        return 0;\n    }\n\n}\n\ncontract SmartInvestments is Ownable, Investments {\n    event InvestorRegister(address _addr, uint256 _id);\n    event ReferralRegister(address _addr, address _refferal);\n    event Deposit(address _addr, uint256 _value);\n    event ReferrerDistribute(uint256 _referrerId, uint256 _sum);\n    event Withdraw(address _addr, uint256 _sum);\n\n    struct Investor {\n        // public\n        uint256 lastWithdraw;\n        uint256 totalSum;                               // total deposits sum\n        uint256 totalWithdraw;\n        uint256 totalReferralIncome;\n        uint256[] referrersByLevel;                     // referrers ids\n        mapping (uint8 => uint256[]) referralsByLevel;  // all referrals ids\n\n        // private\n        uint256 witharawBuffer;\n    }\n\n    uint256 public globalDeposit;\n    uint256 public globalWithdraw;\n\n    Investor[] public investors;\n    mapping (address => uint256) addressToInvestorId;\n    mapping (uint256 => address) investorIdToAddress;\n\n    modifier onlyForExisting() {\n        require(addressToInvestorId[msg.sender] != 0);\n        _;\n    }\n\n    constructor() public payable {\n        globalDeposit = 0;\n        globalWithdraw = 0;\n        investors.push(Investor(0, 0, 0, 0, new uint256[](refLevelsCount), 0));\n    }\n\n    function() external payable {\n        if (msg.value > 0) {\n            deposit(0);\n        } else {\n            withdraw();\n        }\n    }\n\n    function getInvestorInfo(uint256 _id) public view returns(uint256, uint256, uint256, uint256, uint256[] memory, uint256[] memory) {\n        Investor memory investor = investors[_id];\n        return (investor.lastWithdraw, investor.totalSum, investor.totalWithdraw, investor.totalReferralIncome, investor.referrersByLevel, investors[_id].referralsByLevel[uint8(0)]);\n    }\n\n    function getInvestorId(address _address) public view returns(uint256) {\n        return addressToInvestorId[_address];\n    }\n\n    function getInvestorAddress(uint256 _id) public view returns(address) {\n        return investorIdToAddress[_id];\n    }\n\n    function investorsCount() public view returns(uint256) {\n        return investors.length;\n    }\n\n    /// @notice update referrersByLevel and referralsByLevel of new investor\n    /// @param _newInvestorId the ID of the new investor\n    /// @param _refId the ID of the investor who gets the affiliate fee\n    function _updateReferrals(uint256 _newInvestorId, uint256 _refId) private {\n        if (_newInvestorId == _refId) return;\n        investors[_newInvestorId].referrersByLevel[0] = _refId;\n\n        for (uint i = 1; i < refLevelsCount; i++) {\n            uint256 refId = investors[_refId].referrersByLevel[i - 1];\n            investors[_newInvestorId].referrersByLevel[i] = refId;\n            investors[refId].referralsByLevel[uint8(i)].push(_newInvestorId);\n        }\n\n        investors[_refId].referralsByLevel[0].push(_newInvestorId);\n        emit ReferralRegister(investorIdToAddress[_newInvestorId], investorIdToAddress[_refId]);\n    }\n\n    /// @notice distribute value of tx to referrers of investor\n    /// @param _investor the investor object who gets the affiliate fee\n    /// @param _sum value of ethereum for distribute to referrers of investor\n    function _distributeReferrers(Investor memory _investor, uint256 _sum) private {\n        uint256[] memory referrers = _investor.referrersByLevel;\n\n        for (uint i = 0; i < refLevelsCount; i++)  {\n            uint256 referrerId = referrers[i];\n\n            if (referrers[i] == 0) break;\n            // if (investors[referrerId].totalSum < minSumReferral) continue;\n\n            uint16[] memory percents = getRefPercents(investors[referrerId].totalSum);\n            uint256 value = _sum * percents[i] / 10000;\n            if (investorIdToAddress[referrerId] != 0x0) {\n                investorIdToAddress[referrerId].transfer(value);\n                investors[referrerId].totalReferralIncome = investors[referrerId].totalReferralIncome + value;\n                globalWithdraw = globalWithdraw + value;\n            }\n        }\n    }\n\n    function _distribute(Investor storage _investor, uint256 _sum) private {\n        _distributeReferrers(_investor, _sum);\n        developers.transfer(_sum * developersPercent / 100);\n        marketers.transfer(_sum * marketersPercent / 100);\n    }\n\n    function _registerIfNeeded(uint256 _refId) private returns(uint256) {\n        if (addressToInvestorId[msg.sender] != 0) return 0;\n\n        uint256 id = investors.push(Investor(now, 0, 0, 0, new uint256[](refLevelsCount), 0)) - 1;\n        addressToInvestorId[msg.sender] = id;\n        investorIdToAddress[id] = msg.sender;\n\n        if (_refId != 0)\n            _updateReferrals(id, _refId);\n\n        emit InvestorRegister(msg.sender, id);\n    }\n\n    function deposit(uint256 _refId) public payable returns(uint256) {\n        if (addressToInvestorId[msg.sender] == 0)\n            _registerIfNeeded(_refId);\n\n        Investor storage investor = investors[addressToInvestorId[msg.sender]];\n        uint256 amount = withdrawAmount();\n        investor.lastWithdraw = now;\n        investor.witharawBuffer = amount;\n        investor.totalSum = investor.totalSum + msg.value;\n\n        globalDeposit = globalDeposit + msg.value;\n\n        _distribute(investor, msg.value);\n\n        emit Deposit(msg.sender, msg.value);\n        return investor.totalSum;\n    }\n\n    function withdrawAmount() public view returns(uint256) {\n        Investor memory investor = investors[addressToInvestorId[msg.sender]];\n        return investor.totalSum * getProgramPercent(investor.totalSum) / 8760 * ((now - investor.lastWithdraw) / 3600) / 100 + investor.witharawBuffer;\n    }\n\n    function withdraw() public onlyForExisting returns(uint256) {\n        uint256 amount = withdrawAmount();\n\n        require(amount > 0);\n        require(amount < address(this).balance);\n\n        Investor storage investor = investors[addressToInvestorId[msg.sender]];\n        investor.totalWithdraw = investor.totalWithdraw + amount;\n        investor.lastWithdraw = now;\n        investor.witharawBuffer = 0;\n\n        globalWithdraw = globalWithdraw + amount;\n        msg.sender.transfer(amount);\n\n        emit Withdraw(msg.sender, amount);\n    }\n\n}\n",
  "sourcePath": "/home/artyom/projects/smartinvestments/smart_contract/contracts/SmartInvestments.sol",
  "compiler": {
    "name": "solc",
    "version": "0.4.24+commit.e67f0147.Emscripten.clang"
  },
  "schemaVersion": "2.0.2",
  "updatedAt": "2019-01-11T07:58:52.365Z"
}