{
  "contractName": "SmartInvestments",
  "abi": [
    {
      "constant": true,
      "inputs": [],
      "name": "marketersPercent",
      "outputs": [
        {
          "name": "",
          "type": "uint256"
        }
      ],
      "payable": false,
      "stateMutability": "view",
      "type": "function"
    },
    {
      "constant": true,
      "inputs": [],
      "name": "minSumRef",
      "outputs": [
        {
          "name": "",
          "type": "uint256"
        }
      ],
      "payable": false,
      "stateMutability": "view",
      "type": "function"
    },
    {
      "constant": true,
      "inputs": [
        {
          "name": "_sum",
          "type": "uint256"
        }
      ],
      "name": "getRefPercents",
      "outputs": [
        {
          "name": "",
          "type": "uint16[]"
        }
      ],
      "payable": false,
      "stateMutability": "view",
      "type": "function"
    },
    {
      "constant": true,
      "inputs": [],
      "name": "developers",
      "outputs": [
        {
          "name": "",
          "type": "address"
        }
      ],
      "payable": false,
      "stateMutability": "view",
      "type": "function"
    },
    {
      "constant": false,
      "inputs": [
        {
          "name": "newMarketers",
          "type": "address"
        }
      ],
      "name": "setMarketers",
      "outputs": [],
      "payable": false,
      "stateMutability": "nonpayable",
      "type": "function"
    },
    {
      "constant": true,
      "inputs": [],
      "name": "developersPercent",
      "outputs": [
        {
          "name": "",
          "type": "uint256"
        }
      ],
      "payable": false,
      "stateMutability": "view",
      "type": "function"
    },
    {
      "constant": true,
      "inputs": [
        {
          "name": "",
          "type": "uint256"
        }
      ],
      "name": "investors",
      "outputs": [
        {
          "name": "level",
          "type": "uint8"
        },
        {
          "name": "lastWithdraw",
          "type": "uint256"
        },
        {
          "name": "totalSum",
          "type": "uint256"
        }
      ],
      "payable": false,
      "stateMutability": "view",
      "type": "function"
    },
    {
      "constant": true,
      "inputs": [],
      "name": "marketers",
      "outputs": [
        {
          "name": "",
          "type": "address"
        }
      ],
      "payable": false,
      "stateMutability": "view",
      "type": "function"
    },
    {
      "constant": true,
      "inputs": [
        {
          "name": "_index",
          "type": "uint256"
        }
      ],
      "name": "getProgramInfo",
      "outputs": [
        {
          "name": "",
          "type": "uint256"
        },
        {
          "name": "",
          "type": "uint256"
        }
      ],
      "payable": false,
      "stateMutability": "view",
      "type": "function"
    },
    {
      "constant": true,
      "inputs": [
        {
          "name": "",
          "type": "uint256"
        }
      ],
      "name": "refGroups",
      "outputs": [
        {
          "name": "minSum",
          "type": "uint256"
        },
        {
          "name": "maxSum",
          "type": "uint256"
        }
      ],
      "payable": false,
      "stateMutability": "view",
      "type": "function"
    },
    {
      "constant": true,
      "inputs": [],
      "name": "refLevelsTables",
      "outputs": [
        {
          "name": "",
          "type": "uint256"
        }
      ],
      "payable": false,
      "stateMutability": "view",
      "type": "function"
    },
    {
      "constant": false,
      "inputs": [
        {
          "name": "newDevelopers",
          "type": "address"
        }
      ],
      "name": "setDevelopers",
      "outputs": [],
      "payable": false,
      "stateMutability": "nonpayable",
      "type": "function"
    },
    {
      "constant": true,
      "inputs": [],
      "name": "owner",
      "outputs": [
        {
          "name": "",
          "type": "address"
        }
      ],
      "payable": false,
      "stateMutability": "view",
      "type": "function"
    },
    {
      "constant": true,
      "inputs": [
        {
          "name": "",
          "type": "uint256"
        }
      ],
      "name": "programs",
      "outputs": [
        {
          "name": "minSum",
          "type": "uint256"
        },
        {
          "name": "income",
          "type": "uint256"
        }
      ],
      "payable": false,
      "stateMutability": "view",
      "type": "function"
    },
    {
      "constant": true,
      "inputs": [],
      "name": "programsCount",
      "outputs": [
        {
          "name": "",
          "type": "uint256"
        }
      ],
      "payable": false,
      "stateMutability": "view",
      "type": "function"
    },
    {
      "constant": true,
      "inputs": [
        {
          "name": "_index",
          "type": "uint256"
        }
      ],
      "name": "getRefPercentsByIndex",
      "outputs": [
        {
          "name": "",
          "type": "uint16[]"
        }
      ],
      "payable": false,
      "stateMutability": "view",
      "type": "function"
    },
    {
      "constant": true,
      "inputs": [
        {
          "name": "_totalSum",
          "type": "uint256"
        }
      ],
      "name": "getProgramPercent",
      "outputs": [
        {
          "name": "",
          "type": "uint256"
        }
      ],
      "payable": false,
      "stateMutability": "view",
      "type": "function"
    },
    {
      "constant": true,
      "inputs": [],
      "name": "refLevelsCount",
      "outputs": [
        {
          "name": "",
          "type": "uint256"
        }
      ],
      "payable": false,
      "stateMutability": "view",
      "type": "function"
    },
    {
      "constant": false,
      "inputs": [
        {
          "name": "newOwner",
          "type": "address"
        }
      ],
      "name": "transferOwnership",
      "outputs": [],
      "payable": false,
      "stateMutability": "nonpayable",
      "type": "function"
    },
    {
      "inputs": [],
      "payable": false,
      "stateMutability": "nonpayable",
      "type": "constructor"
    },
    {
      "payable": true,
      "stateMutability": "payable",
      "type": "fallback"
    },
    {
      "anonymous": false,
      "inputs": [
        {
          "indexed": false,
          "name": "_addr",
          "type": "address"
        },
        {
          "indexed": false,
          "name": "_id",
          "type": "uint256"
        }
      ],
      "name": "InvestorRegister",
      "type": "event"
    },
    {
      "anonymous": false,
      "inputs": [
        {
          "indexed": false,
          "name": "_addr",
          "type": "address"
        },
        {
          "indexed": false,
          "name": "_refferal",
          "type": "address"
        }
      ],
      "name": "ReferralRegister",
      "type": "event"
    },
    {
      "anonymous": false,
      "inputs": [
        {
          "indexed": false,
          "name": "_addr",
          "type": "address"
        },
        {
          "indexed": false,
          "name": "_value",
          "type": "uint256"
        }
      ],
      "name": "Deposit",
      "type": "event"
    },
    {
      "anonymous": false,
      "inputs": [
        {
          "indexed": false,
          "name": "_referrerId",
          "type": "uint256"
        },
        {
          "indexed": false,
          "name": "_sum",
          "type": "uint256"
        }
      ],
      "name": "ReferrerDistribute",
      "type": "event"
    },
    {
      "anonymous": false,
      "inputs": [
        {
          "indexed": false,
          "name": "_a",
          "type": "uint256"
        }
      ],
      "name": "Test",
      "type": "event"
    },
    {
      "anonymous": false,
      "inputs": [
        {
          "indexed": true,
          "name": "previousOwner",
          "type": "address"
        },
        {
          "indexed": true,
          "name": "newOwner",
          "type": "address"
        }
      ],
      "name": "OwnershipTransferred",
      "type": "event"
    },
    {
      "anonymous": false,
      "inputs": [
        {
          "indexed": true,
          "name": "previousDevelopers",
          "type": "address"
        },
        {
          "indexed": true,
          "name": "newDevelopers",
          "type": "address"
        }
      ],
      "name": "DevelopersChanged",
      "type": "event"
    },
    {
      "anonymous": false,
      "inputs": [
        {
          "indexed": true,
          "name": "previousMarketers",
          "type": "address"
        },
        {
          "indexed": true,
          "name": "newMarketers",
          "type": "address"
        }
      ],
      "name": "MarketersChanged",
      "type": "event"
    },
    {
      "constant": true,
      "inputs": [
        {
          "name": "_id",
          "type": "uint256"
        }
      ],
      "name": "getInvestorInfo",
      "outputs": [
        {
          "name": "",
          "type": "uint8"
        },
        {
          "name": "",
          "type": "uint256"
        },
        {
          "name": "",
          "type": "uint256"
        },
        {
          "name": "",
          "type": "uint256[]"
        }
      ],
      "payable": false,
      "stateMutability": "view",
      "type": "function"
    },
    {
      "constant": false,
      "inputs": [
        {
          "name": "_refId",
          "type": "uint256"
        }
      ],
      "name": "deposit",
      "outputs": [
        {
          "name": "",
          "type": "uint256"
        }
      ],
      "payable": true,
      "stateMutability": "payable",
      "type": "function"
    },
    {
      "constant": true,
      "inputs": [],
      "name": "withdrawAmount",
      "outputs": [
        {
          "name": "",
          "type": "uint256"
        }
      ],
      "payable": false,
      "stateMutability": "view",
      "type": "function"
    },
    {
      "constant": false,
      "inputs": [],
      "name": "withdraw",
      "outputs": [
        {
          "name": "",
          "type": "uint256"
        }
      ],
      "payable": false,
      "stateMutability": "nonpayable",
      "type": "function"
    }
  ],
  "bytecode": "0x608060405273b68e8c1eac20e6b3c92fbb9a601f9fa1e0475d59600160006101000a81548173ffffffffffffffffffffffffffffffffffffffff021916908373ffffffffffffffffffffffffffffffffffffffff16021790555073b68e8c1eac20e6b3c92fbb9a601f9fa1e0475d59600260006101000a81548173ffffffffffffffffffffffffffffffffffffffff021916908373ffffffffffffffffffffffffffffffffffffffff160217905550348015620000bb57600080fd5b50620000c662000f3a565b620000d062000f3a565b620000da62000f3a565b336000806101000a81548173ffffffffffffffffffffffffffffffffffffffff021916908373ffffffffffffffffffffffffffffffffffffffff160217905550606060405190810160405280662386f26fc100008152602001678ac7230489e7ffff81526020016005604051908082528060200260200182016040528015620001725781602001602082028038833980820191505090505b50815250925061012c836040015160008151811015156200018f57fe5b9060200190602002019061ffff16908161ffff1681525050604b83604001516001815181101515620001bd57fe5b9060200190602002019061ffff16908161ffff1681525050603c83604001516002815181101515620001eb57fe5b9060200190602002019061ffff16908161ffff16815250506028836040015160038151811015156200021957fe5b9060200190602002019061ffff16908161ffff16815250506019836040015160048151811015156200024757fe5b9060200190602002019061ffff16908161ffff16815250506003839080600181540180825580915050906001820390600052602060002090600302016000909192909190915060008201518160000155602082015181600101556040820151816002019080519060200190620002bf92919062000f5c565b50505050606060405190810160405280678ac7230489e80000815260200168056bc75e2d630fffff815260200160056040519080825280602002602001820160405280156200031d5781602001602082028038833980820191505090505b5081525091506101f4826040015160008151811015156200033a57fe5b9060200190602002019061ffff16908161ffff168152505060c8826040015160018151811015156200036857fe5b9060200190602002019061ffff16908161ffff16815250506096826040015160028151811015156200039657fe5b9060200190602002019061ffff16908161ffff1681525050606482604001516003815181101515620003c457fe5b9060200190602002019061ffff16908161ffff1681525050603282604001516004815181101515620003f257fe5b9060200190602002019061ffff16908161ffff168152505060038290806001815401808255809150509060018203906000526020600020906003020160009091929091909150600082015181600001556020820151816001015560408201518160020190805190602001906200046a92919062000f5c565b5050505060606040519081016040528068056bc75e2d6310000081526020017fffffffffffffffffffffffffffffffffffffffffffffffffffffffffffffffff81526020016005604051908082528060200260200182016040528015620004e05781602001602082028038833980820191505090505b5081525090506102bc81604001516000815181101515620004fd57fe5b9060200190602002019061ffff16908161ffff168152505061012c816040015160018151811015156200052c57fe5b9060200190602002019061ffff16908161ffff168152505060fa816040015160028151811015156200055a57fe5b9060200190602002019061ffff16908161ffff16815250506096816040015160038151811015156200058857fe5b9060200190602002019061ffff16908161ffff1681525050606481604001516004815181101515620005b657fe5b9060200190602002019061ffff16908161ffff168152505060038190806001815401808255809150509060018203906000526020600020906003020160009091929091909150600082015181600001556020820151816001015560408201518160020190805190602001906200062e92919062000f5c565b5050505060046040805190810160405280662386f26fc10000815260200160b48152509080600181540180825580915050906001820390600052602060002090600202016000909192909190915060008201518160000155602082015181600101555050506004604080519081016040528067039bb49f599a0000815260200160c081525090806001815401808255809150509060018203906000526020600020906002020160009091929091909150600082015181600001556020820151816001015550505060046040805190810160405280670a8c0ff92d4c0000815260200160cc815250908060018154018082558091505090600182039060005260206000209060020201600090919290919091506000820151816000015560208201518160010155505050600460408051908101604052806714f498ffead70000815260200160d8815250908060018154018082558091505090600182039060005260206000209060020201600090919290919091506000820151816000015560208201518160010155505050600460408051908101604052806722d54fb3923b0000815260200160e481525090806001815401808255809150509060018203906000526020600020906002020160009091929091909150600082015181600001556020820151816001015550505060046040805190810160405280673e96bd1ae1030000815260200160f08152509080600181540180825580915050906001820390600052602060002090600202016000909192909190915060008201518160000155602082015181600101555050506004604080519081016040528067614885dc037d0000815260200160fc81525090806001815401808255809150509060018203906000526020600020906002020160009091929091909150600082015181600001556020820151816001015550505060046040805190810160405280678aeaa9f6f9a9000081526020016101088152509080600181540180825580915050906001820390600052602060002090600202016000909192909190915060008201518160000155602082015181600101555050506004604080519081016040528067c26d84c59739000081526020016101148152509080600181540180825580915050906001820390600052602060002090600202016000909192909190915060008201518160000155602082015181600101555050506004604080519081016040528067f9f05f9434c9000081526020016101208152509080600181540180825580915050906001820390600052602060002090600202016000909192909190915060008201518160000155602082015181600101555050506004604080519081016040528068013f53f11679bd0000815260200161012c81525090806001815401808255809150509060018203906000526020600020906002020160009091929091909150600082015181600001556020820151816001015550505060046040805190810160405280680184b78298beb100008152602001610138815250908060018154018082558091505090600182039060005260206000209060020201600090919290919091506000820151816000015560208201518160010155505050600460408051908101604052806801d7fbcaceab09000081526020016101448152509080600181540180825580915050906001820390600052602060002090600202016000909192909190915060008201518160000155602082015181600101555050506004604080519081016040528068023920c9b83ec500008152602001610150815250908060018154018082558091505090600182039060005260206000209060020201600090919290919091506000820151816000015560208201518160010155505050600460408051908101604052806802b5e3af16b1880000815260200161015c81525090806001815401808255809150509060018203906000526020600020906002020160009091929091909150600082015181600001556020820151816001015550505060046040805190810160405280680340aad21b3b700000815260200161016881525090806001815401808255809150509060018203906000526020600020906002020160009091929091909150600082015181600001556020820151816001015550505060046040805190810160405280680410d586a20a4c000081526020016101748152509080600181540180825580915050906001820390600052602060002090600202016000909192909190915060008201518160000155602082015181600101555050506004604080519081016040528068052663ccab1e1c000081526020016101808152509080600181540180825580915050906001820390600052602060002090600202016000909192909190915060008201518160000155602082015181600101555050506004604080519081016040528068068155a43676e00000815260200161018c81525090806001815401808255809150509060018203906000526020600020906002020160009091929091909150600082015181600001556020820151816001015550505060046040805190810160405280680821ab0d4414980000815260200161019881525090806001815401808255809150509060018203906000526020600020906002020160009091929091909150600082015181600001556020820151816001015550505060046040805190810160405280680ad78ebc5ac620000081526020016101a48152509080600181540180825580915050906001820390600052602060002090600202016000909192909190915060008201518160000155602082015181600101555050505050506005608060405190810160405280600060ff1681526020016000815260200160008152602001600560405190808252806020026020018201604052801562000eae5781602001602082028038833980820191505090505b508152509080600181540180825580915050906001820390600052602060002090600502016000909192909190915060008201518160000160006101000a81548160ff021916908360ff1602179055506020820151816001015560408201518160020155606082015181600301908051906020019062000f309291906200100d565b50505050620010bb565b6060604051908101604052806000815260200160008152602001606081525090565b82805482825590600052602060002090600f0160109004810192821562000ffa5791602002820160005b8382111562000fc857835183826101000a81548161ffff021916908361ffff160217905550926020019260020160208160010104928301926001030262000f86565b801562000ff85782816101000a81549061ffff021916905560020160208160010104928301926001030262000fc8565b505b5090506200100991906200105f565b5090565b8280548282559060005260206000209081019282156200104c579160200282015b828111156200104b5782518255916020019190600101906200102e565b5b5090506200105b919062001093565b5090565b6200109091905b808211156200108c57600081816101000a81549061ffff02191690555060010162001066565b5090565b90565b620010b891905b80821115620010b45760008160009055506001016200109a565b5090565b90565b611d6780620010cb6000396000f300608060405260043610610133576000357c0100000000000000000000000000000000000000000000000000000000900463ffffffff1680630f3fc08714610140578063169b15dd1461016b5780631726d2c5146101965780632bc31ca41461021857806339347d521461026f5780633a033915146102b25780633ccfd60b146102dd5780633feb5f2b1461030857806341c969641461035d57806342583c02146103fa5780634b5a726d14610451578063534844a2146104995780635e047d58146104c457806382f470aa1461050c5780638ab476bf146105375780638da5cb5b1461057a57806392db2816146105d157806396a2ddfa14610619578063a1b7783514610644578063b32142a0146106c6578063b547e84414610707578063b6b55f2514610732578063f2fde38b14610766575b61013d60006107a9565b50005b34801561014c57600080fd5b50610155610907565b6040518082815260200191505060405180910390f35b34801561017757600080fd5b5061018061090c565b6040518082815260200191505060405180910390f35b3480156101a257600080fd5b506101c160048036038101908080359060200190929190505050610917565b6040518080602001828103825283818151815260200191508051906020019060200280838360005b838110156102045780820151818401526020810190506101e9565b505050509050019250505060405180910390f35b34801561022457600080fd5b5061022d610a2e565b604051808273ffffffffffffffffffffffffffffffffffffffff1673ffffffffffffffffffffffffffffffffffffffff16815260200191505060405180910390f35b34801561027b57600080fd5b506102b0600480360381019080803573ffffffffffffffffffffffffffffffffffffffff169060200190929190505050610a54565b005b3480156102be57600080fd5b506102c7610bab565b6040518082815260200191505060405180910390f35b3480156102e957600080fd5b506102f2610bb0565b6040518082815260200191505060405180910390f35b34801561031457600080fd5b5061033360048036038101908080359060200190929190505050610c7c565b604051808460ff1660ff168152602001838152602001828152602001935050505060405180910390f35b34801561036957600080fd5b5061038860048036038101908080359060200190929190505050610cc2565b604051808560ff1660ff16815260200184815260200183815260200180602001828103825283818151815260200191508051906020019060200280838360005b838110156103e35780820151818401526020810190506103c8565b505050509050019550505050505060405180910390f35b34801561040657600080fd5b5061040f610dac565b604051808273ffffffffffffffffffffffffffffffffffffffff1673ffffffffffffffffffffffffffffffffffffffff16815260200191505060405180910390f35b34801561045d57600080fd5b5061047c60048036038101908080359060200190929190505050610dd2565b604051808381526020018281526020019250505060405180910390f35b3480156104a557600080fd5b506104ae610e20565b6040518082815260200191505060405180910390f35b3480156104d057600080fd5b506104ef60048036038101908080359060200190929190505050610f58565b604051808381526020018281526020019250505060405180910390f35b34801561051857600080fd5b50610521610f8b565b6040518082815260200191505060405180910390f35b34801561054357600080fd5b50610578600480360381019080803573ffffffffffffffffffffffffffffffffffffffff169060200190929190505050610f90565b005b34801561058657600080fd5b5061058f6110e7565b604051808273ffffffffffffffffffffffffffffffffffffffff1673ffffffffffffffffffffffffffffffffffffffff16815260200191505060405180910390f35b3480156105dd57600080fd5b506105fc6004803603810190808035906020019092919050505061110c565b604051808381526020018281526020019250505060405180910390f35b34801561062557600080fd5b5061062e61113f565b6040518082815260200191505060405180910390f35b34801561065057600080fd5b5061066f60048036038101908080359060200190929190505050611144565b6040518080602001828103825283818151815260200191508051906020019060200280838360005b838110156106b2578082015181840152602081019050610697565b505050509050019250505060405180910390f35b3480156106d257600080fd5b506106f1600480360381019080803590602001909291905050506111e4565b6040518082815260200191505060405180910390f35b34801561071357600080fd5b5061071c61127b565b6040518082815260200191505060405180910390f35b610750600480360381019080803590602001909291905050506107a9565b6040518082815260200191505060405180910390f35b34801561077257600080fd5b506107a7600480360381019080803573ffffffffffffffffffffffffffffffffffffffff169060200190929190505050611280565b005b6000806000600660003373ffffffffffffffffffffffffffffffffffffffff1673ffffffffffffffffffffffffffffffffffffffff1681526020019081526020016000205414156107ff576107fd836113d5565b505b6005600660003373ffffffffffffffffffffffffffffffffffffffff1673ffffffffffffffffffffffffffffffffffffffff1681526020019081526020016000205481548110151561084d57fe5b9060005260206000209060050201905061087434826002015461162490919063ffffffff16565b81600201819055506108868134611645565b61088f816117d8565b7fe1fffcc4923d04b559f4d29a8bfc6cda04eb5b0d3c460751c2402c5c5cc9109c3334604051808373ffffffffffffffffffffffffffffffffffffffff1673ffffffffffffffffffffffffffffffffffffffff1681526020018281526020019250505060405180910390a18060020154915050919050565b600e81565b662386f26fc1000081565b60606000610923611c7b565b600091505b6003821015610a265760038281548110151561094057fe5b9060005260206000209060030201606060405190810160405290816000820154815260200160018201548152602001600282018054806020026020016040519081016040528092919081815260200182805480156109e557602002820191906000526020600020906000905b82829054906101000a900461ffff1661ffff16815260200190600201906020826001010492830192600103820291508084116109ac5790505b505050505081525050905080600001518410158015610a08575080602001518411155b15610a195780604001519250610a27565b8180600101925050610928565b5b5050919050565b600160009054906101000a900473ffffffffffffffffffffffffffffffffffffffff1681565b6000809054906101000a900473ffffffffffffffffffffffffffffffffffffffff1673ffffffffffffffffffffffffffffffffffffffff163373ffffffffffffffffffffffffffffffffffffffff16141515610aaf57600080fd5b600073ffffffffffffffffffffffffffffffffffffffff168173ffffffffffffffffffffffffffffffffffffffff1614151515610aeb57600080fd5b8073ffffffffffffffffffffffffffffffffffffffff16600260009054906101000a900473ffffffffffffffffffffffffffffffffffffffff1673ffffffffffffffffffffffffffffffffffffffff167f5650bc3484c51d95070941164495fa61356f571133f65393510e90fa461118fc60405160405180910390a380600260006101000a81548173ffffffffffffffffffffffffffffffffffffffff021916908373ffffffffffffffffffffffffffffffffffffffff16021790555050565b600181565b6000806000600660003373ffffffffffffffffffffffffffffffffffffffff1673ffffffffffffffffffffffffffffffffffffffff1681526020019081526020016000205414151515610c0257600080fd5b610c0a610e20565b90503073ffffffffffffffffffffffffffffffffffffffff163181101515610c3157600080fd5b3373ffffffffffffffffffffffffffffffffffffffff166108fc829081150290604051600060405180830381858888f19350505050158015610c77573d6000803e3d6000fd5b505090565b600581815481101515610c8b57fe5b90600052602060002090600502016000915090508060000160009054906101000a900460ff16908060010154908060020154905083565b60008060006060610cd1611c9d565b600586815481101515610ce057fe5b9060005260206000209060050201608060405190810160405290816000820160009054906101000a900460ff1660ff1660ff168152602001600182015481526020016002820154815260200160038201805480602002602001604051908101604052809291908181526020018280548015610d7a57602002820191906000526020600020905b815481526020019060010190808311610d66575b505050505081525050905080600001518160200151826040015183606001518090509450945094509450509193509193565b600260009054906101000a900473ffffffffffffffffffffffffffffffffffffffff1681565b600080600483815481101515610de457fe5b906000526020600020906002020160000154600484815481101515610e0557fe5b90600052602060002090600202016001015491509150915091565b6000610e2a611c9d565b6005600660003373ffffffffffffffffffffffffffffffffffffffff1673ffffffffffffffffffffffffffffffffffffffff16815260200190815260200160002054815481101515610e7857fe5b9060005260206000209060050201608060405190810160405290816000820160009054906101000a900460ff1660ff1660ff168152602001600182015481526020016002820154815260200160038201805480602002602001604051908101604052809291908181526020018280548015610f1257602002820191906000526020600020905b815481526020019060010190808311610efe575b5050505050815250509050612238610e1082602001514203811515610f3357fe5b04610f4183604001516111e4565b83604001510202811515610f5157fe5b0491505090565b600381815481101515610f6757fe5b90600052602060002090600302016000915090508060000154908060010154905082565b600381565b6000809054906101000a900473ffffffffffffffffffffffffffffffffffffffff1673ffffffffffffffffffffffffffffffffffffffff163373ffffffffffffffffffffffffffffffffffffffff16141515610feb57600080fd5b600073ffffffffffffffffffffffffffffffffffffffff168173ffffffffffffffffffffffffffffffffffffffff161415151561102757600080fd5b8073ffffffffffffffffffffffffffffffffffffffff16600160009054906101000a900473ffffffffffffffffffffffffffffffffffffffff1673ffffffffffffffffffffffffffffffffffffffff167f7d28dbfe9b3b0a2416f60ca7bc6f6cd19d476b00cec731d9c37ac02a09613d7360405160405180910390a380600160006101000a81548173ffffffffffffffffffffffffffffffffffffffff021916908373ffffffffffffffffffffffffffffffffffffffff16021790555050565b6000809054906101000a900473ffffffffffffffffffffffffffffffffffffffff1681565b60048181548110151561111b57fe5b90600052602060002090600202016000915090508060000154908060010154905082565b601581565b606060038281548110151561115557fe5b90600052602060002090600302016002018054806020026020016040519081016040528092919081815260200182805480156111d857602002820191906000526020600020906000905b82829054906101000a900461ffff1661ffff168152602001906002019060208260010104928301926001038202915080841161119f5790505b50505050509050919050565b6000806000809150600090505b601581101561123e5760048181548110151561120957fe5b9060005260206000209060020201600001548410151561122c5760019150611231565b61123e565b80806001019150506111f1565b811561126f5760046001820381548110151561125657fe5b9060005260206000209060020201600101549250611274565b600092505b5050919050565b600581565b6000809054906101000a900473ffffffffffffffffffffffffffffffffffffffff1673ffffffffffffffffffffffffffffffffffffffff163373ffffffffffffffffffffffffffffffffffffffff161415156112db57600080fd5b600073ffffffffffffffffffffffffffffffffffffffff168173ffffffffffffffffffffffffffffffffffffffff161415151561131757600080fd5b8073ffffffffffffffffffffffffffffffffffffffff166000809054906101000a900473ffffffffffffffffffffffffffffffffffffffff1673ffffffffffffffffffffffffffffffffffffffff167f8be0079c531659141344cd1fd0a4f28419497f9722a3daafe3b4186f6b6457e060405160405180910390a3806000806101000a81548173ffffffffffffffffffffffffffffffffffffffff021916908373ffffffffffffffffffffffffffffffffffffffff16021790555050565b6000806000600660003373ffffffffffffffffffffffffffffffffffffffff1673ffffffffffffffffffffffffffffffffffffffff1681526020019081526020016000205414151561142a576000915061161e565b60016005608060405190810160405280600060ff1681526020014281526020016000815260200160056040519080825280602002602001820160405280156114815781602001602082028038833980820191505090505b508152509080600181540180825580915050906001820390600052602060002090600502016000909192909190915060008201518160000160006101000a81548160ff021916908360ff16021790555060208201518160010155604082015181600201556060820151816003019080519060200190611501929190611cc9565b50505003905080600660003373ffffffffffffffffffffffffffffffffffffffff1673ffffffffffffffffffffffffffffffffffffffff16815260200190815260200160002081905550336007600083815260200190815260200160002060006101000a81548173ffffffffffffffffffffffffffffffffffffffff021916908373ffffffffffffffffffffffffffffffffffffffff1602179055506000831415156115b2576115b181846117db565b5b7fae113c9cbae6738145294475bea985e0336ca46961a9cfd432acb8a6d80762bb3382604051808373ffffffffffffffffffffffffffffffffffffffff1673ffffffffffffffffffffffffffffffffffffffff1681526020018281526020019250505060405180910390a15b50919050565b600080828401905083811015151561163b57600080fd5b8091505092915050565b6116e482608060405190810160405290816000820160009054906101000a900460ff1660ff1660ff1681526020016001820154815260200160028201548152602001600382018054806020026020016040519081016040528092919081815260200182805480156116d557602002820191906000526020600020905b8154815260200190600101908083116116c1575b50505050508152505082611a7f565b600160009054906101000a900473ffffffffffffffffffffffffffffffffffffffff1673ffffffffffffffffffffffffffffffffffffffff166108fc60646001840281151561172f57fe5b049081150290604051600060405180830381858888f1935050505015801561175b573d6000803e3d6000fd5b50600260009054906101000a900473ffffffffffffffffffffffffffffffffffffffff1673ffffffffffffffffffffffffffffffffffffffff166108fc6064600e84028115156117a757fe5b049081150290604051600060405180830381858888f193505050501580156117d3573d6000803e3d6000fd5b505050565b50565b600080828414156117eb57611a79565b826005858154811015156117fb57fe5b9060005260206000209060050201600301600081548110151561181a57fe5b9060005260206000200181905550600191505b600582101561191d5760058181548110151561184557fe5b90600052602060002090600502016003016001830381548110151561186657fe5b906000526020600020015490508060058581548110151561188357fe5b9060005260206000209060050201600301838154811015156118a157fe5b90600052602060002001819055506005818154811015156118be57fe5b906000526020600020906005020160040160008360ff1660ff168152602001908152602001600020849080600181540180825580915050906001820390600052602060002001600090919290919091505550818060010192505061182d565b60058381548110151561192c57fe5b906000526020600020906005020160040160008060ff1681526020019081526020016000208390806001815401808255809150509060018203906000526020600020016000909192909190915055507f6fe19d2f49909131887f63f825d099fe66f8d640410b5f604c9a7958d04846b66007600086815260200190815260200160002060009054906101000a900473ffffffffffffffffffffffffffffffffffffffff166007600086815260200190815260200160002060009054906101000a900473ffffffffffffffffffffffffffffffffffffffff16604051808373ffffffffffffffffffffffffffffffffffffffff1673ffffffffffffffffffffffffffffffffffffffff1681526020018273ffffffffffffffffffffffffffffffffffffffff1673ffffffffffffffffffffffffffffffffffffffff1681526020019250505060405180910390a15b50505050565b606080600080662386f26fc1000086604001511015611a9d57611c73565b85606001519350611ab18660400151610917565b9250600091505b6005821015611c725760008483815181101515611ad157fe5b906020019060200201511415611ae657611c72565b6127108383815181101515611af757fe5b9060200190602002015161ffff168602811515611b1057fe5b0490506000600760008685815181101515611b2757fe5b90602001906020020151815260200190815260200160002060009054906101000a900473ffffffffffffffffffffffffffffffffffffffff1673ffffffffffffffffffffffffffffffffffffffff16141515611c0f57600760008584815181101515611b8f57fe5b90602001906020020151815260200190815260200160002060009054906101000a900473ffffffffffffffffffffffffffffffffffffffff1673ffffffffffffffffffffffffffffffffffffffff166108fc829081150290604051600060405180830381858888f19350505050158015611c0d573d6000803e3d6000fd5b505b7f4f4438d1ad83c54063e5ae5ecdc44fdf876669f439942e63ef76c21b4cfd746e8483815181101515611c3e57fe5b9060200190602002015182604051808381526020018281526020019250505060405180910390a18180600101925050611ab8565b5b505050505050565b6060604051908101604052806000815260200160008152602001606081525090565b608060405190810160405280600060ff1681526020016000815260200160008152602001606081525090565b828054828255906000526020600020908101928215611d05579160200282015b82811115611d04578251825591602001919060010190611ce9565b5b509050611d129190611d16565b5090565b611d3891905b80821115611d34576000816000905550600101611d1c565b5090565b905600a165627a7a7230582065d0d8df964ba23d9d9ac1183477d42a04df86beac927ffc17750089e03ad9a40029",
  "source": "pragma solidity ^0.4.24;\n\n/*\n\n  /$$$$$$                                      /$$           /$$$$$$                                           /$$                                         /$$\n /$$__  $$                                    | $$          |_  $$_/                                          | $$                                        | $$\n| $$  \\__/ /$$$$$$/$$$$   /$$$$$$   /$$$$$$  /$$$$$$          | $$   /$$$$$$$  /$$    /$$ /$$$$$$   /$$$$$$$ /$$$$$$   /$$$$$$/$$$$   /$$$$$$  /$$$$$$$  /$$$$$$   /$$$$$$$\n|  $$$$$$ | $$_  $$_  $$ |____  $$ /$$__  $$|_  $$_/          | $$  | $$__  $$|  $$  /$$//$$__  $$ /$$_____/|_  $$_/  | $$_  $$_  $$ /$$__  $$| $$__  $$|_  $$_/  /$$_____/\n \\____  $$| $$ \\ $$ \\ $$  /$$$$$$$| $$  \\__/  | $$            | $$  | $$  \\ $$ \\  $$/$$/| $$$$$$$$|  $$$$$$   | $$    | $$ \\ $$ \\ $$| $$$$$$$$| $$  \\ $$  | $$   |  $$$$$$\n /$$  \\ $$| $$ | $$ | $$ /$$__  $$| $$        | $$ /$$        | $$  | $$  | $$  \\  $$$/ | $$_____/ \\____  $$  | $$ /$$| $$ | $$ | $$| $$_____/| $$  | $$  | $$ /$$\\____  $$\n|  $$$$$$/| $$ | $$ | $$|  $$$$$$$| $$        |  $$$$/       /$$$$$$| $$  | $$   \\  $/  |  $$$$$$$ /$$$$$$$/  |  $$$$/| $$ | $$ | $$|  $$$$$$$| $$  | $$  |  $$$$//$$$$$$$/\n \\______/ |__/ |__/ |__/ \\_______/|__/         \\___/        |______/|__/  |__/    \\_/    \\_______/|_______/    \\___/  |__/ |__/ |__/ \\_______/|__/  |__/   \\___/ |_______/\n\n*/\n\n//import \"./Math.sol\";\nimport \"./SafeMath.sol\";\nimport \"./Ownable.sol\";\n\ncontract Investments {\n\n    struct InvestProgram {\n        uint256 minSum;     // min sum for program\n        uint256 income;     // income for one year\n    }\n\n    struct ReferralGroup {\n        uint256 minSum;\n        uint256 maxSum;\n        uint16[] percents;\n    }\n\n    uint256 public constant minSumRef = 0.01 ether;\n    uint256 public constant refLevelsTables = 3;\n    uint256 public constant refLevelsCount = 5;\n    ReferralGroup[] public refGroups;\n    uint256 public constant programsCount = 21;\n    InvestProgram[] public programs;\n\n    constructor() public {\n        ReferralGroup memory refGroupFirsty = ReferralGroup(minSumRef, 10 ether - 1 wei, new uint16[](refLevelsCount));\n        refGroupFirsty.percents[0] = 300;   // 3%\n        refGroupFirsty.percents[1] = 75;    // 0.75%\n        refGroupFirsty.percents[2] = 60;    // 0.6%\n        refGroupFirsty.percents[3] = 40;    // 0.4%\n        refGroupFirsty.percents[4] = 25;    // 0.25%\n        refGroups.push(refGroupFirsty);\n\n        ReferralGroup memory refGroupLoyalty = ReferralGroup(10 ether, 100 ether - 1 wei, new uint16[](refLevelsCount));\n        refGroupLoyalty.percents[0] = 500;  // 5%\n        refGroupLoyalty.percents[1] = 200;  // 2%\n        refGroupLoyalty.percents[2] = 150;  // 1.5%\n        refGroupLoyalty.percents[3] = 100;  // 1%\n        refGroupLoyalty.percents[4] = 50;   // 0.5%\n        refGroups.push(refGroupLoyalty);\n\n        ReferralGroup memory refGroupUltraPremium = ReferralGroup(100 ether, 2**256 - 1, new uint16[](refLevelsCount));\n        refGroupUltraPremium.percents[0] = 700; // 7%\n        refGroupUltraPremium.percents[1] = 300; // 3%\n        refGroupUltraPremium.percents[2] = 250; // 2.5%\n        refGroupUltraPremium.percents[3] = 150; // 1.5%\n        refGroupUltraPremium.percents[4] = 100; // 1%\n        refGroups.push(refGroupUltraPremium);\n\n        programs.push(InvestProgram(0.01    ether, 180));   // 180%\n        programs.push(InvestProgram(0.26    ether, 192));   // 192%\n        programs.push(InvestProgram(0.76    ether, 204));   // 204%\n        programs.push(InvestProgram(1.51    ether, 216));   // 216%\n        programs.push(InvestProgram(2.51    ether, 228));   // 228%\n        programs.push(InvestProgram(4.51    ether, 240));   // 240%\n        programs.push(InvestProgram(7.01    ether, 252));   // 252%\n        programs.push(InvestProgram(10.01   ether, 264));   // 264%\n        programs.push(InvestProgram(14.01   ether, 276));   // 276%\n        programs.push(InvestProgram(18.01   ether, 288));   // 288%\n        programs.push(InvestProgram(23.01   ether, 300));   // 300%\n        programs.push(InvestProgram(28.01   ether, 312));   // 312%\n        programs.push(InvestProgram(34.01   ether, 324));   // 324%\n        programs.push(InvestProgram(41.01   ether, 336));   // 336%\n        programs.push(InvestProgram(50      ether, 348));   // 348%\n        programs.push(InvestProgram(60      ether, 360));   // 360%\n        programs.push(InvestProgram(75      ether, 372));   // 372%\n        programs.push(InvestProgram(95      ether, 384));   // 384%\n        programs.push(InvestProgram(120     ether, 396));   // 396%\n        programs.push(InvestProgram(150     ether, 408));   // 408%\n        programs.push(InvestProgram(200     ether, 420));   // 420%\n    }\n\n    function getRefPercents(uint256 _sum) public view returns(uint16[]) {\n        for (uint i = 0; i < refLevelsTables; i++) {\n            ReferralGroup memory group = refGroups[i];\n            if (_sum >= group.minSum && _sum <= group.maxSum) return group.percents;\n        }\n    }\n\n    function getRefPercentsByIndex(uint256 _index) public view returns(uint16[]) {\n        return refGroups[_index].percents;\n    }\n\n    function getProgramInfo(uint256 _index) public view returns(uint256, uint256) {\n        return (programs[_index].minSum, programs[_index].income);\n    }\n\n    function getProgramPercent(uint256 _totalSum) public view returns(uint256) {\n        bool exist = false;\n        for (uint256 i = 0; i < programsCount; i++) {\n            if (_totalSum >= programs[i].minSum) exist = true;\n            else break;\n        }\n\n        if (exist) return programs[i - 1].income;\n\n        return 0;\n    }\n\n}\n\ncontract SmartInvestments is Ownable, Investments {\n    using SafeMath for uint256;\n\n    event InvestorRegister(address _addr, uint256 _id);\n    event ReferralRegister(address _addr, address _refferal);\n    event Deposit(address _addr, uint256 _value);\n    event ReferrerDistribute(uint256 _referrerId, uint256 _sum);\n    event Test(uint256 _a);\n\n    struct Investor {\n        uint8 level;\n        uint256 lastWithdraw;\n        uint256 totalSum;                               // total deposits sum\n        uint256[] referrersByLevel;                     // referrers ids\n        mapping (uint8 => uint256[]) referralsByLevel;  // all referrals ids\n    }\n\n    Investor[] public investors;\n    mapping (address => uint256) addressToInvestorId;\n    mapping (uint256 => address) investorIdToAddress;\n\n    modifier onlyForExisting() {\n        require(addressToInvestorId[msg.sender] != 0);\n        _;\n    }\n\n    constructor() public {\n        investors.push(Investor(0, 0, 0, new uint256[](refLevelsCount)));\n    }\n\n    function() public payable {\n        deposit(0);\n    }\n\n    function getInvestorInfo(uint256 _id) public view returns(uint8, uint256, uint256, uint256[]) {\n        Investor memory investor = investors[_id];\n\n        return (investor.level, investor.lastWithdraw, investor.totalSum, investor.referrersByLevel);\n    }\n\n    /// @notice update referrersByLevel and referralsByLevel of new investor\n    /// @param _newInvestorId the ID of the new investor\n    /// @param _refId the ID of the investor who gets the affiliate fee\n    function _updateReferrals(uint256 _newInvestorId, uint256 _refId) private {\n        if (_newInvestorId == _refId) return;\n        investors[_newInvestorId].referrersByLevel[0] = _refId;\n\n        for (uint i = 1; i < refLevelsCount; i++) {\n            uint256 refId = investors[refId].referrersByLevel[i - 1];\n            investors[_newInvestorId].referrersByLevel[i] = refId;\n            investors[refId].referralsByLevel[uint8(i)].push(_newInvestorId);\n        }\n\n        investors[_refId].referralsByLevel[0].push(_refId);\n        emit ReferralRegister(investorIdToAddress[_newInvestorId], investorIdToAddress[_refId]);\n    }\n\n    /// @notice distribute value of tx to referrers of investor\n    /// @param _investor the investor object who gets the affiliate fee\n    /// @param _sum value of ethereum for distribute to referrers of investor\n    function _distributeReferrers(Investor memory _investor, uint256 _sum) private {\n        if (_investor.totalSum < minSumRef) return;\n\n        uint256[] memory referrers = _investor.referrersByLevel;\n        uint16[] memory percents = getRefPercents(_investor.totalSum);\n\n        for (uint i = 0; i < refLevelsCount; i++) {\n            if (referrers[i] == 0) break;\n\n            uint256 value = _sum * percents[i] / 10000;\n            if (investorIdToAddress[referrers[i]] != 0x0)\n                investorIdToAddress[referrers[i]].transfer(value);\n\n            emit ReferrerDistribute(referrers[i], value);\n        }\n    }\n\n    function _distribute(Investor storage _investor, uint256 _sum) private {\n        _distributeReferrers(_investor, _sum);\n        developers.transfer(_sum * developersPercent / 100);\n        marketers.transfer(_sum * marketersPercent / 100);\n    }\n\n    function _updateLevel(Investor storage _investor) private {\n\n    }\n\n    function _registerIfNeeded(uint256 _refId) private returns(uint256) {\n        if (addressToInvestorId[msg.sender] != 0) return 0;\n\n        uint256 id = investors.push(Investor(0, now, 0, new uint256[](refLevelsCount))) - 1;\n        addressToInvestorId[msg.sender] = id;\n        investorIdToAddress[id] = msg.sender;\n\n        if (_refId != 0)\n            _updateReferrals(id, _refId);\n\n        emit InvestorRegister(msg.sender, id);\n    }\n\n    function deposit(uint256 _refId) public payable returns(uint256) {\n        if (addressToInvestorId[msg.sender] == 0)\n            _registerIfNeeded(_refId);\n\n        Investor storage investor = investors[addressToInvestorId[msg.sender]];\n        investor.totalSum = investor.totalSum.add(msg.value);\n\n        _distribute(investor, msg.value);\n        _updateLevel(investor);\n\n        emit Deposit(msg.sender, msg.value);\n        return investor.totalSum;\n    }\n\n    function withdrawAmount() public view returns(uint256) {\n        Investor memory investor = investors[addressToInvestorId[msg.sender]];\n\n        return investor.totalSum * getProgramPercent(investor.totalSum) * ((now - investor.lastWithdraw) / 3600) / 8760;\n    }\n\n    function withdraw() public onlyForExisting returns(uint256) {\n        uint256 amount = withdrawAmount();\n        require(amount < address(this).balance);\n\n        msg.sender.transfer(amount);\n    }\n\n}\n",
  "sourcePath": "/Users/alexey/Projects/DApps/smartinvestments/contracts/SmartInvestments.sol",
  "compiler": {
    "name": "solc",
    "version": "0.4.24+commit.e67f0147.Emscripten.clang"
  },
  "schemaVersion": "2.0.1",
  "updatedAt": "2018-12-02T13:55:52.395Z"
}